{
  "address": "0xcdb9b4db65C913aB000b40204248C8A53185D14D",
  "abi": [
    {
      "anonymous": false,
      "inputs": [
        {
          "indexed": false,
          "internalType": "address",
          "name": "previousAdmin",
          "type": "address"
        },
        {
          "indexed": false,
          "internalType": "address",
          "name": "newAdmin",
          "type": "address"
        }
      ],
      "name": "AdminChanged",
      "type": "event"
    },
    {
      "anonymous": false,
      "inputs": [
        {
          "indexed": true,
          "internalType": "address",
          "name": "beacon",
          "type": "address"
        }
      ],
      "name": "BeaconUpgraded",
      "type": "event"
    },
    {
      "anonymous": false,
      "inputs": [
        {
          "indexed": true,
          "internalType": "address",
          "name": "previousOwner",
          "type": "address"
        },
        {
          "indexed": true,
          "internalType": "address",
          "name": "newOwner",
          "type": "address"
        }
      ],
      "name": "OwnershipTransferred",
      "type": "event"
    },
    {
      "anonymous": false,
      "inputs": [
        {
          "indexed": true,
          "internalType": "address",
          "name": "rewardToken",
          "type": "address"
        },
        {
          "indexed": true,
          "internalType": "address",
          "name": "account",
          "type": "address"
        },
        {
          "indexed": true,
          "internalType": "address",
          "name": "receiver",
          "type": "address"
        },
        {
          "indexed": false,
          "internalType": "uint256",
          "name": "amount",
          "type": "uint256"
        }
      ],
      "name": "TransferReward",
      "type": "event"
    },
    {
      "anonymous": false,
      "inputs": [
        {
          "indexed": true,
          "internalType": "address",
          "name": "rewardToken",
          "type": "address"
        },
        {
          "indexed": true,
          "internalType": "address",
          "name": "cToken",
          "type": "address"
        },
        {
          "indexed": true,
          "internalType": "uint256",
          "name": "speed",
          "type": "uint256"
        },
        {
          "indexed": false,
          "internalType": "uint256",
          "name": "start",
          "type": "uint256"
        },
        {
          "indexed": false,
          "internalType": "uint256",
          "name": "end",
          "type": "uint256"
        }
      ],
      "name": "UpdateBorrowRewardSpeed",
      "type": "event"
    },
    {
      "anonymous": false,
      "inputs": [
        {
          "indexed": true,
          "internalType": "address",
          "name": "rewardToken",
          "type": "address"
        },
        {
          "indexed": true,
          "internalType": "address",
          "name": "cToken",
          "type": "address"
        },
        {
          "indexed": true,
          "internalType": "address",
          "name": "borrower",
          "type": "address"
        },
        {
          "indexed": false,
          "internalType": "uint256",
          "name": "rewards",
          "type": "uint256"
        },
        {
          "indexed": false,
          "internalType": "uint256",
          "name": "borrowIndex",
          "type": "uint256"
        }
      ],
      "name": "UpdateBorrowerRewardIndex",
      "type": "event"
    },
    {
      "anonymous": false,
      "inputs": [
        {
          "indexed": true,
          "internalType": "address",
          "name": "account",
          "type": "address"
        },
        {
          "indexed": true,
          "internalType": "bool",
          "name": "isDebtor",
          "type": "bool"
        }
      ],
      "name": "UpdateDebtor",
      "type": "event"
    },
    {
      "anonymous": false,
      "inputs": [
        {
          "indexed": true,
          "internalType": "address",
          "name": "account",
          "type": "address"
        },
        {
          "indexed": true,
          "internalType": "address",
          "name": "receiver",
          "type": "address"
        }
      ],
      "name": "UpdateRewardReceiver",
      "type": "event"
    },
    {
      "anonymous": false,
      "inputs": [
        {
          "indexed": true,
          "internalType": "address",
          "name": "rewardToken",
          "type": "address"
        },
        {
          "indexed": true,
          "internalType": "address",
          "name": "cToken",
          "type": "address"
        },
        {
          "indexed": true,
          "internalType": "address",
          "name": "supplier",
          "type": "address"
        },
        {
          "indexed": false,
          "internalType": "uint256",
          "name": "rewards",
          "type": "uint256"
        },
        {
          "indexed": false,
          "internalType": "uint256",
          "name": "supplyIndex",
          "type": "uint256"
        }
      ],
      "name": "UpdateSupplierRewardIndex",
      "type": "event"
    },
    {
      "anonymous": false,
      "inputs": [
        {
          "indexed": true,
          "internalType": "address",
          "name": "rewardToken",
          "type": "address"
        },
        {
          "indexed": true,
          "internalType": "address",
          "name": "cToken",
          "type": "address"
        },
        {
          "indexed": true,
          "internalType": "uint256",
          "name": "speed",
          "type": "uint256"
        },
        {
          "indexed": false,
          "internalType": "uint256",
          "name": "start",
          "type": "uint256"
        },
        {
          "indexed": false,
          "internalType": "uint256",
          "name": "end",
          "type": "uint256"
        }
      ],
      "name": "UpdateSupplyRewardSpeed",
      "type": "event"
    },
    {
      "anonymous": false,
      "inputs": [
        {
          "indexed": true,
          "internalType": "address",
          "name": "implementation",
          "type": "address"
        }
      ],
      "name": "Upgraded",
      "type": "event"
    },
    {
      "inputs": [
        {
          "internalType": "address",
          "name": "rewardToken",
          "type": "address"
        }
      ],
      "name": "addRewardToken",
      "outputs": [],
      "stateMutability": "nonpayable",
      "type": "function"
    },
    {
      "inputs": [
        {
          "internalType": "address",
          "name": "account",
          "type": "address"
        }
      ],
      "name": "claimAllRewards",
      "outputs": [],
      "stateMutability": "nonpayable",
      "type": "function"
    },
    {
      "inputs": [
        {
          "internalType": "address",
          "name": "account",
          "type": "address"
        },
        {
          "internalType": "address[]",
          "name": "cTokens",
          "type": "address[]"
        },
        {
          "internalType": "address[]",
          "name": "rewards",
          "type": "address[]"
        },
        {
          "internalType": "bool",
          "name": "borrowers",
          "type": "bool"
        },
        {
          "internalType": "bool",
          "name": "suppliers",
          "type": "bool"
        }
      ],
      "name": "claimRewards",
      "outputs": [],
      "stateMutability": "nonpayable",
      "type": "function"
    },
    {
      "inputs": [
        {
          "internalType": "address",
          "name": "account",
          "type": "address"
        },
        {
          "internalType": "address",
          "name": "reward",
          "type": "address"
        }
      ],
      "name": "claimSingleReward",
      "outputs": [
        {
          "components": [
            {
              "internalType": "address",
              "name": "market",
              "type": "address"
            },
            {
              "internalType": "bool",
              "name": "supply",
              "type": "bool"
            },
            {
              "internalType": "bool",
              "name": "borrow",
              "type": "bool"
            }
          ],
          "internalType": "struct LiquidityMining.UserMarkets[]",
          "name": "",
          "type": "tuple[]"
        }
      ],
      "stateMutability": "nonpayable",
      "type": "function"
    },
    {
      "inputs": [],
      "name": "comptroller",
      "outputs": [
        {
          "internalType": "address",
          "name": "",
          "type": "address"
        }
      ],
      "stateMutability": "view",
      "type": "function"
    },
    {
      "inputs": [
        {
          "internalType": "address",
          "name": "",
          "type": "address"
        }
      ],
      "name": "debtors",
      "outputs": [
        {
          "internalType": "bool",
          "name": "",
          "type": "bool"
        }
      ],
      "stateMutability": "view",
      "type": "function"
    },
    {
      "inputs": [],
      "name": "getAllMarketRewardSpeeds",
      "outputs": [
        {
          "components": [
            {
              "internalType": "address",
              "name": "cToken",
              "type": "address"
            },
            {
              "components": [
                {
                  "components": [
                    {
                      "internalType": "address",
                      "name": "rewardTokenAddress",
                      "type": "address"
                    },
                    {
                      "internalType": "string",
                      "name": "rewardTokenSymbol",
                      "type": "string"
                    },
                    {
                      "internalType": "uint8",
                      "name": "rewardTokenDecimals",
                      "type": "uint8"
                    }
                  ],
                  "internalType": "struct LiquidityMining.RewardTokenInfo",
                  "name": "rewardToken",
                  "type": "tuple"
                },
                {
                  "components": [
                    {
                      "internalType": "uint256",
                      "name": "speed",
                      "type": "uint256"
                    },
                    {
                      "internalType": "uint256",
                      "name": "start",
                      "type": "uint256"
                    },
                    {
                      "internalType": "uint256",
                      "name": "end",
                      "type": "uint256"
                    }
                  ],
                  "internalType": "struct LiquidityMiningStorage.RewardSpeed",
                  "name": "supplySpeed",
                  "type": "tuple"
                },
                {
                  "components": [
                    {
                      "internalType": "uint256",
                      "name": "speed",
                      "type": "uint256"
                    },
                    {
                      "internalType": "uint256",
                      "name": "start",
                      "type": "uint256"
                    },
                    {
                      "internalType": "uint256",
                      "name": "end",
                      "type": "uint256"
                    }
                  ],
                  "internalType": "struct LiquidityMiningStorage.RewardSpeed",
                  "name": "borrowSpeed",
                  "type": "tuple"
                }
              ],
              "internalType": "struct LiquidityMining.RewardSpeedInfo[]",
              "name": "rewardSpeeds",
              "type": "tuple[]"
            }
          ],
          "internalType": "struct LiquidityMining.MarketRewardSpeed[]",
          "name": "",
          "type": "tuple[]"
        }
      ],
      "stateMutability": "view",
      "type": "function"
    },
    {
      "inputs": [],
      "name": "getBlockTimestamp",
      "outputs": [
        {
          "internalType": "uint256",
          "name": "",
          "type": "uint256"
        }
      ],
      "stateMutability": "view",
      "type": "function"
    },
    {
      "inputs": [
        {
          "internalType": "address",
          "name": "cToken",
          "type": "address"
        }
      ],
      "name": "getMarketRewardSpeeds",
      "outputs": [
        {
          "components": [
            {
              "internalType": "address",
              "name": "cToken",
              "type": "address"
            },
            {
              "components": [
                {
                  "components": [
                    {
                      "internalType": "address",
                      "name": "rewardTokenAddress",
                      "type": "address"
                    },
                    {
                      "internalType": "string",
                      "name": "rewardTokenSymbol",
                      "type": "string"
                    },
                    {
                      "internalType": "uint8",
                      "name": "rewardTokenDecimals",
                      "type": "uint8"
                    }
                  ],
                  "internalType": "struct LiquidityMining.RewardTokenInfo",
                  "name": "rewardToken",
                  "type": "tuple"
                },
                {
                  "components": [
                    {
                      "internalType": "uint256",
                      "name": "speed",
                      "type": "uint256"
                    },
                    {
                      "internalType": "uint256",
                      "name": "start",
                      "type": "uint256"
                    },
                    {
                      "internalType": "uint256",
                      "name": "end",
                      "type": "uint256"
                    }
                  ],
                  "internalType": "struct LiquidityMiningStorage.RewardSpeed",
                  "name": "supplySpeed",
                  "type": "tuple"
                },
                {
                  "components": [
                    {
                      "internalType": "uint256",
                      "name": "speed",
                      "type": "uint256"
                    },
                    {
                      "internalType": "uint256",
                      "name": "start",
                      "type": "uint256"
                    },
                    {
                      "internalType": "uint256",
                      "name": "end",
                      "type": "uint256"
                    }
                  ],
                  "internalType": "struct LiquidityMiningStorage.RewardSpeed",
                  "name": "borrowSpeed",
                  "type": "tuple"
                }
              ],
              "internalType": "struct LiquidityMining.RewardSpeedInfo[]",
              "name": "rewardSpeeds",
              "type": "tuple[]"
            }
          ],
          "internalType": "struct LiquidityMining.MarketRewardSpeed",
          "name": "",
          "type": "tuple"
        }
      ],
      "stateMutability": "view",
      "type": "function"
    },
    {
      "inputs": [
        {
          "internalType": "address",
          "name": "rewardToken",
          "type": "address"
        }
      ],
      "name": "getRewardTokenInfo",
      "outputs": [
        {
          "components": [
            {
              "internalType": "address",
              "name": "rewardTokenAddress",
              "type": "address"
            },
            {
              "internalType": "string",
              "name": "rewardTokenSymbol",
              "type": "string"
            },
            {
              "internalType": "uint8",
              "name": "rewardTokenDecimals",
              "type": "uint8"
            }
          ],
          "internalType": "struct LiquidityMining.RewardTokenInfo",
          "name": "",
          "type": "tuple"
        }
      ],
      "stateMutability": "view",
      "type": "function"
    },
    {
      "inputs": [],
      "name": "getRewardTokenList",
      "outputs": [
        {
          "internalType": "address[]",
          "name": "",
          "type": "address[]"
        }
      ],
      "stateMutability": "view",
      "type": "function"
    },
    {
      "inputs": [
        {
          "internalType": "address",
          "name": "account",
          "type": "address"
        }
      ],
      "name": "getRewardsAvailable",
      "outputs": [
        {
          "components": [
            {
              "components": [
                {
                  "internalType": "address",
                  "name": "rewardTokenAddress",
                  "type": "address"
                },
                {
                  "internalType": "string",
                  "name": "rewardTokenSymbol",
                  "type": "string"
                },
                {
                  "internalType": "uint8",
                  "name": "rewardTokenDecimals",
                  "type": "uint8"
                }
              ],
              "internalType": "struct LiquidityMining.RewardTokenInfo",
              "name": "rewardToken",
              "type": "tuple"
            },
            {
              "internalType": "uint256",
              "name": "amount",
              "type": "uint256"
            }
          ],
          "internalType": "struct LiquidityMining.RewardAvailable[]",
          "name": "",
          "type": "tuple[]"
        }
      ],
      "stateMutability": "nonpayable",
      "type": "function"
    },
    {
      "inputs": [
        {
          "internalType": "address",
          "name": "_admin",
          "type": "address"
        },
        {
          "internalType": "address",
          "name": "_comptroller",
          "type": "address"
        }
      ],
      "name": "initialize",
      "outputs": [],
      "stateMutability": "nonpayable",
      "type": "function"
    },
    {
      "inputs": [],
      "name": "owner",
      "outputs": [
        {
          "internalType": "address",
          "name": "",
          "type": "address"
        }
      ],
      "stateMutability": "view",
      "type": "function"
    },
    {
      "inputs": [],
      "name": "renounceOwnership",
      "outputs": [],
      "stateMutability": "nonpayable",
      "type": "function"
    },
    {
      "inputs": [
        {
          "internalType": "address",
          "name": "",
          "type": "address"
        },
        {
          "internalType": "address",
          "name": "",
          "type": "address"
        }
      ],
      "name": "rewardAccrued",
      "outputs": [
        {
          "internalType": "uint256",
          "name": "",
          "type": "uint256"
        }
      ],
      "stateMutability": "view",
      "type": "function"
    },
    {
      "inputs": [
        {
          "internalType": "address",
          "name": "",
          "type": "address"
        },
        {
          "internalType": "address",
          "name": "",
          "type": "address"
        }
      ],
      "name": "rewardBorrowSpeeds",
      "outputs": [
        {
          "internalType": "uint256",
          "name": "speed",
          "type": "uint256"
        },
        {
          "internalType": "uint256",
          "name": "start",
          "type": "uint256"
        },
        {
          "internalType": "uint256",
          "name": "end",
          "type": "uint256"
        }
      ],
      "stateMutability": "view",
      "type": "function"
    },
    {
      "inputs": [
        {
          "internalType": "address",
          "name": "",
          "type": "address"
        },
        {
          "internalType": "address",
          "name": "",
          "type": "address"
        }
      ],
      "name": "rewardBorrowState",
      "outputs": [
        {
          "internalType": "uint256",
          "name": "index",
          "type": "uint256"
        },
        {
          "internalType": "uint256",
          "name": "timestamp",
          "type": "uint256"
        }
      ],
      "stateMutability": "view",
      "type": "function"
    },
    {
      "inputs": [
        {
          "internalType": "address",
          "name": "",
          "type": "address"
        },
        {
          "internalType": "address",
          "name": "",
          "type": "address"
        },
        {
          "internalType": "address",
          "name": "",
          "type": "address"
        }
      ],
      "name": "rewardBorrowerIndex",
      "outputs": [
        {
          "internalType": "uint256",
          "name": "",
          "type": "uint256"
        }
      ],
      "stateMutability": "view",
      "type": "function"
    },
    {
      "inputs": [
        {
          "internalType": "address",
          "name": "",
          "type": "address"
        }
      ],
      "name": "rewardReceivers",
      "outputs": [
        {
          "internalType": "address",
          "name": "",
          "type": "address"
        }
      ],
      "stateMutability": "view",
      "type": "function"
    },
    {
      "inputs": [
        {
          "internalType": "address",
          "name": "",
          "type": "address"
        },
        {
          "internalType": "address",
          "name": "",
          "type": "address"
        },
        {
          "internalType": "address",
          "name": "",
          "type": "address"
        }
      ],
      "name": "rewardSupplierIndex",
      "outputs": [
        {
          "internalType": "uint256",
          "name": "",
          "type": "uint256"
        }
      ],
      "stateMutability": "view",
      "type": "function"
    },
    {
      "inputs": [
        {
          "internalType": "address",
          "name": "",
          "type": "address"
        },
        {
          "internalType": "address",
          "name": "",
          "type": "address"
        }
      ],
      "name": "rewardSupplySpeeds",
      "outputs": [
        {
          "internalType": "uint256",
          "name": "speed",
          "type": "uint256"
        },
        {
          "internalType": "uint256",
          "name": "start",
          "type": "uint256"
        },
        {
          "internalType": "uint256",
          "name": "end",
          "type": "uint256"
        }
      ],
      "stateMutability": "view",
      "type": "function"
    },
    {
      "inputs": [
        {
          "internalType": "address",
          "name": "",
          "type": "address"
        },
        {
          "internalType": "address",
          "name": "",
          "type": "address"
        }
      ],
      "name": "rewardSupplyState",
      "outputs": [
        {
          "internalType": "uint256",
          "name": "index",
          "type": "uint256"
        },
        {
          "internalType": "uint256",
          "name": "timestamp",
          "type": "uint256"
        }
      ],
      "stateMutability": "view",
      "type": "function"
    },
    {
      "inputs": [
        {
          "internalType": "uint256",
          "name": "",
          "type": "uint256"
        }
      ],
      "name": "rewardTokens",
      "outputs": [
        {
          "internalType": "address",
          "name": "",
          "type": "address"
        }
      ],
      "stateMutability": "view",
      "type": "function"
    },
    {
      "inputs": [
        {
          "internalType": "address",
          "name": "",
          "type": "address"
        }
      ],
      "name": "rewardTokensMap",
      "outputs": [
        {
          "internalType": "bool",
          "name": "",
          "type": "bool"
        }
      ],
      "stateMutability": "view",
      "type": "function"
    },
    {
      "inputs": [
        {
          "internalType": "address",
          "name": "rewardToken",
          "type": "address"
        },
        {
          "internalType": "address[]",
          "name": "cTokens",
          "type": "address[]"
        },
        {
          "internalType": "uint256[]",
          "name": "speeds",
          "type": "uint256[]"
        },
        {
          "internalType": "uint256[]",
          "name": "starts",
          "type": "uint256[]"
        },
        {
          "internalType": "uint256[]",
          "name": "ends",
          "type": "uint256[]"
        }
      ],
      "name": "setRewardBorrowSpeeds",
      "outputs": [],
      "stateMutability": "nonpayable",
      "type": "function"
    },
    {
      "inputs": [
        {
          "internalType": "address",
          "name": "rewardToken",
          "type": "address"
        },
        {
          "internalType": "address[]",
          "name": "cTokens",
          "type": "address[]"
        },
        {
          "internalType": "uint256[]",
          "name": "speeds",
          "type": "uint256[]"
        },
        {
          "internalType": "uint256[]",
          "name": "starts",
          "type": "uint256[]"
        },
        {
          "internalType": "uint256[]",
          "name": "ends",
          "type": "uint256[]"
        }
      ],
      "name": "setRewardSupplySpeeds",
      "outputs": [],
      "stateMutability": "nonpayable",
      "type": "function"
    },
    {
      "inputs": [
        {
          "internalType": "address",
          "name": "account",
          "type": "address"
        },
        {
          "internalType": "address",
          "name": "receiver",
          "type": "address"
        }
      ],
      "name": "setRewardsReceiver",
      "outputs": [],
      "stateMutability": "nonpayable",
      "type": "function"
    },
    {
      "inputs": [
        {
          "internalType": "address",
          "name": "newOwner",
          "type": "address"
        }
      ],
      "name": "transferOwnership",
      "outputs": [],
      "stateMutability": "nonpayable",
      "type": "function"
    },
    {
      "inputs": [
        {
          "internalType": "address",
          "name": "cToken",
          "type": "address"
        },
        {
          "internalType": "address[]",
          "name": "borrowers",
          "type": "address[]"
        }
      ],
      "name": "updateBorrowIndex",
      "outputs": [],
      "stateMutability": "nonpayable",
      "type": "function"
    },
    {
      "inputs": [
        {
          "internalType": "address[]",
          "name": "accounts",
          "type": "address[]"
        }
      ],
      "name": "updateDebtors",
      "outputs": [],
      "stateMutability": "nonpayable",
      "type": "function"
    },
    {
      "inputs": [
        {
          "internalType": "address",
          "name": "cToken",
          "type": "address"
        },
        {
          "internalType": "address[]",
          "name": "suppliers",
          "type": "address[]"
        }
      ],
      "name": "updateSupplyIndex",
      "outputs": [],
      "stateMutability": "nonpayable",
      "type": "function"
    },
    {
      "inputs": [
        {
          "internalType": "address",
          "name": "newImplementation",
          "type": "address"
        }
      ],
      "name": "upgradeTo",
      "outputs": [],
      "stateMutability": "nonpayable",
      "type": "function"
    },
    {
      "inputs": [
        {
          "internalType": "address",
          "name": "newImplementation",
          "type": "address"
        },
        {
          "internalType": "bytes",
          "name": "data",
          "type": "bytes"
        }
      ],
      "name": "upgradeToAndCall",
      "outputs": [],
      "stateMutability": "payable",
      "type": "function"
    }
  ],
  "transactionHash": "0x69bb9addd4a081710e26ee55be678b8fc1e743b735dcfbc2bcbf39b6563a6849",
  "args": [],
  "numDeployments": 1,
  "solcInputHash": "bb56c30664ac4bb0a95dce29e237e8a1",
  "bytecode": "0x60a06040523060601b60805234801561001757600080fd5b5060805160601c614b3461004b60003960008181610f9401528181610fd40152818161113901526111790152614b346000f3fe6080604052600436106101f95760003560e01c8063715018a61161010d5780639ebdff46116100a0578063b2989f5d1161006f578063b2989f5d1461070a578063e3cec1a214610737578063e5029dc814610757578063e991560f14610796578063f2fde38b146107b6576101f9565b80639ebdff4614610658578063a295613d14610678578063a3d813b41461069a578063aa6be303146106da576101f9565b80637bb7bed1116100dc5780637bb7bed1146105d85780638da5cb5b146105f85780639222e57214610616578063969133a814610636576101f9565b8063715018a61461054d5780637687c0e014610562578063796b89b9146105985780637a685677146105ab576101f9565b80633f7e2907116101905780635f15ff421161015f5780635f15ff42146104015780635f3b28021461042e5780635fd85d2f146104905780635fe3b567146104d757806360777a4f1461050f576101f9565b80633f7e29071461038e578063485cc955146103ae5780634f1ef286146103ce57806351593beb146103e1576101f9565b80631c03e6cc116101cc5780631c03e6cc146102da5780632a2b0f84146102fa578063317d2abc1461031a5780633659cfe61461036e576101f9565b80630434b210146101fe578063059123fc146102345780630bda5be1146102565780631ad964ed1461029c575b600080fd5b34801561020a57600080fd5b5061021e610219366004614014565b6107d6565b60405161022b91906146fc565b60405180910390f35b34801561024057600080fd5b5061025461024f3660046142be565b610bea565b005b34801561026257600080fd5b5061028e610271366004614014565b60d260209081526000928352604080842090915290825290205481565b60405190815260200161022b565b3480156102a857600080fd5b5061028e6102b736600461404c565b60d060209081526000938452604080852082529284528284209052825290205481565b3480156102e657600080fd5b506102546102f5366004613ff8565b610e50565b34801561030657600080fd5b5061025461031536600461417d565b610f49565b34801561032657600080fd5b50610359610335366004614014565b60ce6020908152600092835260408084209091529082529020805460019091015482565b6040805192835260208301919091520161022b565b34801561037a57600080fd5b50610254610389366004613ff8565b610f89565b34801561039a57600080fd5b506102546103a936600461417d565b611052565b3480156103ba57600080fd5b506102546103c9366004614014565b61108b565b6102546103dc366004614237565b61112e565b3480156103ed57600080fd5b506102546103fc3660046140e3565b6111e4565b34801561040d57600080fd5b5061042161041c366004613ff8565b6114ec565b60405161022b9190614933565b34801561043a57600080fd5b50610475610449366004614014565b60cd60209081526000928352604080842090915290825290208054600182015460029092015490919083565b6040805193845260208401929092529082015260600161022b565b34801561049c57600080fd5b506104756104ab366004614014565b60cc60209081526000928352604080842090915290825290208054600182015460029092015490919083565b3480156104e357600080fd5b5060c9546104f7906001600160a01b031681565b6040516001600160a01b03909116815260200161022b565b34801561051b57600080fd5b5061028e61052a36600461404c565b60d160209081526000938452604080852082529284528284209052825290205481565b34801561055957600080fd5b50610254611721565b34801561056e57600080fd5b506104f761057d366004613ff8565b60d4602052600090815260409020546001600160a01b031681565b3480156105a457600080fd5b504261028e565b3480156105b757600080fd5b506105cb6105c6366004613ff8565b611757565b60405161022b9190614689565b3480156105e457600080fd5b506104f76105f336600461440d565b611b06565b34801561060457600080fd5b506097546001600160a01b03166104f7565b34801561062257600080fd5b50610254610631366004614096565b611b30565b34801561064257600080fd5b5061064b611b97565b60405161022b91906145dc565b34801561066457600080fd5b50610254610673366004614014565b611bf9565b34801561068457600080fd5b5061068d611c7a565b60405161022b9190614629565b3480156106a657600080fd5b506106ca6106b5366004613ff8565b60cb6020526000908152604090205460ff1681565b604051901515815260200161022b565b3480156106e657600080fd5b506106ca6106f5366004613ff8565b60d36020526000908152604090205460ff1681565b34801561071657600080fd5b5061072a610725366004613ff8565b611dfd565b60405161022b9190614946565b34801561074357600080fd5b50610254610752366004614096565b611f15565b34801561076357600080fd5b50610359610772366004614014565b60cf6020908152600092835260408084209091529082529020805460019091015482565b3480156107a257600080fd5b506102546107b1366004613ff8565b611f7c565b3480156107c257600080fd5b506102546107d1366004613ff8565b6120ee565b6001600160a01b03808316600090815260d4602052604090205460609184911615610842576001600160a01b03818116600090815260d4602052604090205416331461083d5760405162461bcd60e51b8152600401610834906148d8565b60405180910390fd5b61086a565b336001600160a01b0382161461086a5760405162461bcd60e51b8152600401610834906148d8565b6001600160a01b038316600090815260cb602052604090205460ff166108a25760405162461bcd60e51b815260040161083490614775565b6001600160a01b038416600090815260d3602052604090205460ff16156108db5760405162461bcd60e51b815260040161083490614892565b60c9546040805163b0772d0b60e01b815290516000926001600160a01b03169163b0772d0b9160048083019286929190829003018186803b15801561091f57600080fd5b505afa158015610933573d6000803e3d6000fd5b505050506040513d6000823e601f3d908101601f1916820160405261095b91908101906142f0565b9050600081516001600160401b0381111561098657634e487b7160e01b600052604160045260246000fd5b6040519080825280602002602001820160405280156109d157816020015b60408051606081018252600080825260208083018290529282015282526000199092019101816109a45790505b50905060005b8251811015610be0576000838281518110610a0257634e487b7160e01b600052603260045260246000fd5b60200260200101516001600160a01b031663aa5af0fd6040518163ffffffff1660e01b815260040160206040518083038186803b158015610a4257600080fd5b505afa158015610a56573d6000803e3d6000fd5b505050506040513d601f19601f82011682018060405250810190610a7a9190614425565b9050610aae87858481518110610aa057634e487b7160e01b600052603260045260246000fd5b602002602001015183612186565b6000610ae588868581518110610ad457634e487b7160e01b600052603260045260246000fd5b60200260200101518b8560016123cb565b9050610b1888868581518110610b0b57634e487b7160e01b600052603260045260246000fd5b6020026020010151612664565b6000610b4e89878681518110610b3e57634e487b7160e01b600052603260045260246000fd5b60200260200101518c6001612859565b90506040518060600160405280878681518110610b7b57634e487b7160e01b600052603260045260246000fd5b60200260200101516001600160a01b031681526020018215158152602001831515815250858581518110610bbf57634e487b7160e01b600052603260045260246000fd5b60200260200101819052505050508080610bd890614a6d565b9150506109d7565b5095945050505050565b6097546001600160a01b03163314610c145760405162461bcd60e51b8152600401610834906148fe565b60005b8151811015610e4c576000828281518110610c4257634e487b7160e01b600052603260045260246000fd5b602090810291909101015160c954604051635ec88c7960e01b81526001600160a01b03808416600483015292935060009283921690635ec88c799060240160606040518083038186803b158015610c9857600080fd5b505afa158015610cac573d6000803e3d6000fd5b505050506040513d601f19601f82011682018060405250810190610cd0919061443d565b925050915081600014610d3e5760405162461bcd60e51b815260206004820152603060248201527f6661696c656420746f20676574206163636f756e74206c69717569646974792060448201526f333937b69031b7b6b83a3937b63632b960811b6064820152608401610834565b600081118015610d6757506001600160a01b038316600090815260d3602052604090205460ff16155b15610dc0576001600160a01b038316600081815260d36020526040808220805460ff1916600190811790915590519092917f26d21015c4930494b63bc148d61540d95bc6c68e8a80cbdd089c41ab839c281b91a3610e36565b80158015610de657506001600160a01b038316600090815260d3602052604090205460ff165b15610e36576001600160a01b038316600081815260d36020526040808220805460ff19169055519091907f26d21015c4930494b63bc148d61540d95bc6c68e8a80cbdd089c41ab839c281b908390a35b5050508080610e4490614a6d565b915050610c17565b5050565b6097546001600160a01b03163314610e7a5760405162461bcd60e51b8152600401610834906148fe565b6001600160a01b038116600090815260cb602052604090205460ff1615610ee35760405162461bcd60e51b815260206004820152601b60248201527f72657761726420746f6b656e20686173206265656e20616464656400000000006044820152606401610834565b6001600160a01b0316600081815260cb60205260408120805460ff1916600190811790915560ca805491820181559091527f42d72674974f694b5f5159593243114d38a5c39c89d6b62fee061ff523240ee10180546001600160a01b0319169091179055565b6097546001600160a01b03163314610f735760405162461bcd60e51b8152600401610834906148fe565b610f8285858585856000612aac565b5050505050565b306001600160a01b037f0000000000000000000000000000000000000000000000000000000000000000161415610fd25760405162461bcd60e51b8152600401610834906147ac565b7f00000000000000000000000000000000000000000000000000000000000000006001600160a01b0316611004613073565b6001600160a01b03161461102a5760405162461bcd60e51b8152600401610834906147f8565b611033816130a1565b6040805160008082526020820190925261104f918391906130cb565b50565b6097546001600160a01b0316331461107c5760405162461bcd60e51b8152600401610834906148fe565b610f8285858585856001612aac565b600054610100900460ff16806110a4575060005460ff16155b6110c05760405162461bcd60e51b815260040161083490614844565b600054610100900460ff161580156110eb576000805460ff1961ff0019909116610100171660011790555b6110f361320f565b60c980546001600160a01b0319166001600160a01b038416179055611117836120ee565b8015611129576000805461ff00191690555b505050565b306001600160a01b037f00000000000000000000000000000000000000000000000000000000000000001614156111775760405162461bcd60e51b8152600401610834906147ac565b7f00000000000000000000000000000000000000000000000000000000000000006001600160a01b03166111a9613073565b6001600160a01b0316146111cf5760405162461bcd60e51b8152600401610834906147f8565b6111d8826130a1565b610e4c828260016130cb565b6001600160a01b03808616600090815260d4602052604090205486911615611244576001600160a01b03818116600090815260d4602052604090205416331461123f5760405162461bcd60e51b8152600401610834906148d8565b61126c565b336001600160a01b0382161461126c5760405162461bcd60e51b8152600401610834906148d8565b6001600160a01b038616600090815260d3602052604090205460ff16156112a55760405162461bcd60e51b815260040161083490614892565b60005b85518110156113af5760008682815181106112d357634e487b7160e01b600052603260045260246000fd5b60200260200101519050600060016001600160401b0381111561130657634e487b7160e01b600052604160045260246000fd5b60405190808252806020026020018201604052801561132f578160200160208202803683370190505b509050888160008151811061135457634e487b7160e01b600052603260045260246000fd5b60200260200101906001600160a01b031690816001600160a01b0316815250508515611387576113878783836000613293565b841561139a5761139a878383600061343c565b505080806113a790614a6d565b9150506112a8565b5060005b84518110156114e35761145d8582815181106113df57634e487b7160e01b600052603260045260246000fd5b60200260200101518860d2600089868151811061140c57634e487b7160e01b600052603260045260246000fd5b60200260200101516001600160a01b03166001600160a01b0316815260200190815260200160002060008b6001600160a01b03166001600160a01b031681526020019081526020016000205461356c565b60d2600087848151811061148157634e487b7160e01b600052603260045260246000fd5b60200260200101516001600160a01b03166001600160a01b031681526020019081526020016000206000896001600160a01b03166001600160a01b031681526020019081526020016000208190555080806114db90614a6d565b9150506113b3565b50505050505050565b6040805180820190915260008082526060602083015260ca546001600160401b0381111561152a57634e487b7160e01b600052604160045260246000fd5b60405190808252806020026020018201604052801561156357816020015b611550613e72565b8152602001906001900390816115485790505b50905060005b60ca548110156117005760405180606001604052806115bc60ca84815481106115a257634e487b7160e01b600052603260045260246000fd5b6000918252602090912001546001600160a01b0316611dfd565b815260200160cc600060ca85815481106115e657634e487b7160e01b600052603260045260246000fd5b60009182526020808320909101546001600160a01b0390811684528382019490945260409283018220938a1682529283528181208251606081018452815481526001820154818601526002909101549281019290925290835260ca8054939092019260cd92908690811061166a57634e487b7160e01b600052603260045260246000fd5b60009182526020808320909101546001600160a01b0390811684528382019490945260409283018220938a1682529283528190208151606081018352815481526001820154938101939093526002015490820152905282518390839081106116e257634e487b7160e01b600052603260045260246000fd5b602002602001018190525080806116f890614a6d565b915050611569565b50604080518082019091526001600160a01b03909316835260208301525090565b6097546001600160a01b0316331461174b5760405162461bcd60e51b8152600401610834906148fe565b61175560006136c9565b565b6001600160a01b03808216600090815260d46020526040902054606091839116156117ba576001600160a01b03818116600090815260d460205260409020541633146117b55760405162461bcd60e51b8152600401610834906148d8565b6117e2565b336001600160a01b038216146117e25760405162461bcd60e51b8152600401610834906148d8565b60ca546000906001600160401b0381111561180d57634e487b7160e01b600052604160045260246000fd5b604051908082528060200260200182016040528015611836578160200160208202803683370190505b5060ca549091506000906001600160401b0381111561186557634e487b7160e01b600052604160045260246000fd5b60405190808252806020026020018201604052801561189e57816020015b61188b613edc565b8152602001906001900390816118835790505b50905060005b60ca548110156119925760ca81815481106118cf57634e487b7160e01b600052603260045260246000fd5b6000918252602090912001546040516370a0823160e01b81526001600160a01b038881166004830152909116906370a082319060240160206040518083038186803b15801561191d57600080fd5b505afa158015611931573d6000803e3d6000fd5b505050506040513d601f19601f820116820180604052508101906119559190614425565b83828151811061197557634e487b7160e01b600052603260045260246000fd5b60209081029190910101528061198a81614a6d565b9150506118a4565b5061199c85611f7c565b60005b60ca54811015611afd57600060ca82815481106119cc57634e487b7160e01b600052603260045260246000fd5b6000918252602090912001546040516370a0823160e01b81526001600160a01b038981166004830152909116906370a082319060240160206040518083038186803b158015611a1a57600080fd5b505afa158015611a2e573d6000803e3d6000fd5b505050506040513d601f19601f82011682018060405250810190611a529190614425565b90506040518060400160405280611a8360ca85815481106115a257634e487b7160e01b600052603260045260246000fd5b8152602001858481518110611aa857634e487b7160e01b600052603260045260246000fd5b602002602001015183611abb9190614a2a565b815250838381518110611ade57634e487b7160e01b600052603260045260246000fd5b6020026020010181905250508080611af590614a6d565b91505061199f565b50949350505050565b60ca8181548110611b1657600080fd5b6000918252602090912001546001600160a01b0316905081565b610e4c60ca805480602002602001604051908101604052809291908181526020018280548015611b8957602002820191906000526020600020905b81546001600160a01b03168152600190910190602001808311611b6b575b50505050508383600161343c565b606060ca805480602002602001604051908101604052809291908181526020018280548015611bef57602002820191906000526020600020905b81546001600160a01b03168152600190910190602001808311611bd1575b5050505050905090565b6097546001600160a01b03163314611c235760405162461bcd60e51b8152600401610834906148fe565b6001600160a01b03828116600081815260d4602052604080822080546001600160a01b0319169486169485179055517fe543ea37b85db3694e667ab5b466a1eb407ea121ae536706f20c536aa3e4d7c69190a35050565b6060600060c960009054906101000a90046001600160a01b03166001600160a01b031663b0772d0b6040518163ffffffff1660e01b815260040160006040518083038186803b158015611ccc57600080fd5b505afa158015611ce0573d6000803e3d6000fd5b505050506040513d6000823e601f3d908101601f19168201604052611d0891908101906142f0565b9050600081516001600160401b03811115611d3357634e487b7160e01b600052604160045260246000fd5b604051908082528060200260200182016040528015611d7957816020015b604080518082019091526000815260606020820152815260200190600190039081611d515790505b50905060005b8251811015611df657611db8838281518110611dab57634e487b7160e01b600052603260045260246000fd5b60200260200101516114ec565b828281518110611dd857634e487b7160e01b600052603260045260246000fd5b60200260200101819052508080611dee90614a6d565b915050611d7f565b5091505090565b611e05613efc565b6040518060600160405280836001600160a01b03168152602001836001600160a01b03166395d89b416040518163ffffffff1660e01b815260040160006040518083038186803b158015611e5857600080fd5b505afa158015611e6c573d6000803e3d6000fd5b505050506040513d6000823e601f3d908101601f19168201604052611e9491908101906143a4565b8152602001836001600160a01b031663313ce5676040518163ffffffff1660e01b815260040160206040518083038186803b158015611ed257600080fd5b505afa158015611ee6573d6000803e3d6000fd5b505050506040513d601f19601f82011682018060405250810190611f0a919061446a565b60ff16905292915050565b610e4c60ca805480602002602001604051908101604052809291908181526020018280548015611f6e57602002820191906000526020600020905b81546001600160a01b03168152600190910190602001808311611f50575b505050505083836001613293565b6001600160a01b03808216600090815260d4602052604090205482911615611fdc576001600160a01b03818116600090815260d46020526040902054163314611fd75760405162461bcd60e51b8152600401610834906148d8565b612004565b336001600160a01b038216146120045760405162461bcd60e51b8152600401610834906148d8565b60c9546040805163b0772d0b60e01b815290516000926001600160a01b03169163b0772d0b9160048083019286929190829003018186803b15801561204857600080fd5b505afa15801561205c573d6000803e3d6000fd5b505050506040513d6000823e601f3d908101601f1916820160405261208491908101906142f0565b9050611129838260ca8054806020026020016040519081016040528092919081815260200182805480156120e157602002820191906000526020600020905b81546001600160a01b031681526001909101906020018083116120c3575b50505050506001806111e4565b6097546001600160a01b031633146121185760405162461bcd60e51b8152600401610834906148fe565b6001600160a01b03811661217d5760405162461bcd60e51b815260206004820152602660248201527f4f776e61626c653a206e6577206f776e657220697320746865207a65726f206160448201526564647265737360d01b6064820152608401610834565b61104f816136c9565b6001600160a01b03838116600081815260cf6020908152604080832094871680845294825280832093835260cd8252808320948352938152838220845160608101865281548152600182015492810192909252600201549381019390935290919042905082600101548111156123c357815115806122075750816020015181105b80612219575081604001518360010154115b1561222a57600183018190556123c3565b600061223e8460010154846020015161371b565b90506000612250838560400151613735565b9050600061225e8383614a2a565b85519091506000906122709083614a0b565b90506000888a6001600160a01b03166347bd37186040518163ffffffff1660e01b815260040160206040518083038186803b1580156122ae57600080fd5b505afa1580156122c2573d6000803e3d6000fd5b505050506040513d601f19601f820116820180604052508101906122e69190614425565b6122f890670de0b6b3a7640000614a0b565b61230291906149eb565b90506000808211612314576000612331565b8161232784670de0b6b3a7640000614a0b565b61233191906149eb565b90506000818a6000015461234591906149d3565b905060405180604001604052808281526020018981525060cf60008f6001600160a01b03166001600160a01b0316815260200190815260200160002060008e6001600160a01b03166001600160a01b031681526020019081526020016000206000820151816000015560208201518160010155905050505050505050505b505050505050565b6001600160a01b03858116600081815260cf602090815260408083208986168085529083528184208251808401845281548082526001909201548186015295855260d1845282852091855290835281842095891684529490915281208054908490559092908015801561243e5750600082115b1561244e5750670de0b6b3a76400005b80156126535760006124608284614a2a565b6040516395dd919360e01b81526001600160a01b038a811660048301529192506000918991908c16906395dd91939060240160206040518083038186803b1580156124aa57600080fd5b505afa1580156124be573d6000803e3d6000fd5b505050506040513d601f19601f820116820180604052508101906124e29190614425565b6124f490670de0b6b3a7640000614a0b565b6124fe91906149eb565b90506000670de0b6b3a76400006125158484614a0b565b61251f91906149eb565b6001600160a01b03808e16600090815260d260209081526040808320938f16835292905290812054919250906125569083906149d3565b905088156125ba576125698d8c8361356c565b60d260008f6001600160a01b03166001600160a01b0316815260200190815260200160002060008d6001600160a01b03166001600160a01b03168152602001908152602001600020819055506125e3565b6001600160a01b03808e16600090815260d260209081526040808320938f168352929052208190555b8a6001600160a01b03168c6001600160a01b03168e6001600160a01b03167f6b024d318c21b2bab46c7033be8aea76966d078464fbfe800d89c0f74539bcc9858a60405161263b929190918252602082015260400190565b60405180910390a4501515955061265b945050505050565b600093505050505b95945050505050565b6001600160a01b03828116600081815260ce6020908152604080832094861680845294825280832093835260cc825280832094835293815283822084516060810186528154815260018201549281019290925260020154938101939093529091904290508260010154811115610f8257815115806126e55750808260200151115b806126f7575081604001518360010154115b156127085760018301819055610f82565b600061271c8460010154846020015161371b565b9050600061272e838560400151613735565b9050600061273c8383614a2a565b855190915060009061274e9083614a0b565b90506000886001600160a01b03166318160ddd6040518163ffffffff1660e01b815260040160206040518083038186803b15801561278b57600080fd5b505afa15801561279f573d6000803e3d6000fd5b505050506040513d601f19601f820116820180604052508101906127c39190614425565b905060008082116127d55760006127f2565b816127e884670de0b6b3a7640000614a0b565b6127f291906149eb565b90506000818a6000015461280691906149d3565b60408051808201825291825260208083019a8b526001600160a01b039e8f16600090815260ce82528281209e909f168f529c909c529a909b2099518a555050935160019097019690965550505050505050565b6001600160a01b03848116600081815260ce602090815260408083208886168085529083528184208251808401845281548082526001909201548186015295855260d084528285209185529083528184209588168452949091528120805490849055909290801580156128cc5750600082115b156128dc5750670de0b6b3a76400005b8015612a9c5760006128ee8284614a2a565b6040516370a0823160e01b81526001600160a01b0389811660048301529192506000918a16906370a082319060240160206040518083038186803b15801561293557600080fd5b505afa158015612949573d6000803e3d6000fd5b505050506040513d601f19601f8201168201806040525081019061296d9190614425565b90506000670de0b6b3a76400006129848484614a0b565b61298e91906149eb565b6001600160a01b03808d16600090815260d260209081526040808320938e16835292905290812054919250906129c59083906149d3565b90508815612a03576129d88c8b8361356c565b6001600160a01b03808e16600090815260d260209081526040808320938f1683529290522055612a2c565b6001600160a01b03808d16600090815260d260209081526040808320938e168352929052208190555b896001600160a01b03168b6001600160a01b03168d6001600160a01b03167fd86006b66121ffb8dbb982b137b8f7e9d7db643a9b18044e879f6214b709d31e858a604051612a84929190918252602082015260400190565b60405180910390a45015159550612aa4945050505050565b600093505050505b949350505050565b845142908015801590612abf5750855181145b8015612acb5750845181145b8015612ad75750835181145b612b135760405162461bcd60e51b815260206004820152600d60248201526c1a5b9d985b1a59081a5b9c1d5d609a1b6044820152606401610834565b6001600160a01b038816600090815260cb602052604090205460ff16612b7b5760405162461bcd60e51b815260206004820152601a60248201527f72657761726420746f6b656e20776173206e6f742061646465640000000000006044820152606401610834565b60005b81811015613068576000888281518110612ba857634e487b7160e01b600052603260045260246000fd5b602002602001015190506000888381518110612bd457634e487b7160e01b600052603260045260246000fd5b602002602001015190506000888481518110612c0057634e487b7160e01b600052603260045260246000fd5b602002602001015190506000888581518110612c2c57634e487b7160e01b600052603260045260246000fd5b602002602001015190508715612e0d57612c468d85613746565b15612c5a57612c558d85612664565b612cd7565b6040518060400160405280670de0b6b3a764000081526020018881525060ce60008f6001600160a01b03166001600160a01b031681526020019081526020016000206000866001600160a01b03166001600160a01b0316815260200190815260200160002060008201518160000155602082015181600101559050505b6001600160a01b03808e16600090815260cc602090815260408083209388168352928152908290208251606081018452815481526001820154928101929092526002015491810191909152612d2d9083836137a8565b60405180606001604052808481526020018381526020018281525060cc60008f6001600160a01b03166001600160a01b031681526020019081526020016000206000866001600160a01b03166001600160a01b0316815260200190815260200160002060008201518160000155602082015181600101556040820151816002015590505082846001600160a01b03168e6001600160a01b03167f77df4b7dde7e2c2ae957e232182d8b5dac40946e701afd577a281f679221d02a8585604051612e00929190918252602082015260400190565b60405180910390a4613051565b612e178d8561393e565b15612ea2576000846001600160a01b031663aa5af0fd6040518163ffffffff1660e01b815260040160206040518083038186803b158015612e5757600080fd5b505afa158015612e6b573d6000803e3d6000fd5b505050506040513d601f19601f82011682018060405250810190612e8f9190614425565b9050612e9c8e8683612186565b50612f1f565b6040518060400160405280670de0b6b3a764000081526020018881525060cf60008f6001600160a01b03166001600160a01b031681526020019081526020016000206000866001600160a01b03166001600160a01b0316815260200190815260200160002060008201518160000155602082015181600101559050505b6001600160a01b03808e16600090815260cd602090815260408083209388168352928152908290208251606081018452815481526001820154928101929092526002015491810191909152612f759083836137a8565b60405180606001604052808481526020018381526020018281525060cd60008f6001600160a01b03166001600160a01b031681526020019081526020016000206000866001600160a01b03166001600160a01b0316815260200190815260200160002060008201518160000155602082015181600101556040820151816002015590505082846001600160a01b03168e6001600160a01b03167ff5ee6756f151aeea2ed0e4ad055ee767f3497691bfb7022292048950c6f70d8a8585604051613048929190918252602082015260400190565b60405180910390a45b50505050808061306090614a6d565b915050612b7e565b505050505050505050565b7f360894a13ba1a3210667c828492db98dca3e2076cc3735a920a3ca505d382bbc546001600160a01b031690565b6097546001600160a01b0316331461104f5760405162461bcd60e51b8152600401610834906148fe565b60006130d5613073565b90506130e0846139a0565b6000835111806130ed5750815b156130fe576130fc8484613a45565b505b7f4910fdfa16fed3260ed0e7147f7cc6da11a60208b5b9406d12a635614ffd9143805460ff16610f8257805460ff191660011781556040516001600160a01b038316602482015261317d90869060440160408051601f198184030181529190526020810180516001600160e01b0316631b2ce7f360e11b179052613a45565b50805460ff1916815561318e613073565b6001600160a01b0316826001600160a01b0316146132065760405162461bcd60e51b815260206004820152602f60248201527f45524331393637557067726164653a207570677261646520627265616b73206660448201526e75727468657220757067726164657360881b6064820152608401610834565b610f8285613b27565b600054610100900460ff1680613228575060005460ff16155b6132445760405162461bcd60e51b815260040161083490614844565b600054610100900460ff1615801561326f576000805460ff1961ff0019909116610100171660011790555b613277613b67565b61327f613bda565b801561104f576000805461ff001916905550565b60005b8451811015610f825760cb60008683815181106132c357634e487b7160e01b600052603260045260246000fd5b6020908102919091018101516001600160a01b031682528101919091526040016000205460ff166133065760405162461bcd60e51b815260040161083490614775565b6000846001600160a01b031663aa5af0fd6040518163ffffffff1660e01b815260040160206040518083038186803b15801561334157600080fd5b505afa158015613355573d6000803e3d6000fd5b505050506040513d601f19601f820116820180604052508101906133799190614425565b90506133ad86838151811061339e57634e487b7160e01b600052603260045260246000fd5b60200260200101518683612186565b60005b8451811015613427576134148784815181106133dc57634e487b7160e01b600052603260045260246000fd5b60200260200101518787848151811061340557634e487b7160e01b600052603260045260246000fd5b602002602001015185886123cb565b508061341f81614a6d565b9150506133b0565b5050808061343490614a6d565b915050613296565b60005b8451811015610f825760cb600086838151811061346c57634e487b7160e01b600052603260045260246000fd5b6020908102919091018101516001600160a01b031682528101919091526040016000205460ff166134af5760405162461bcd60e51b815260040161083490614775565b6134e08582815181106134d257634e487b7160e01b600052603260045260246000fd5b602002602001015185612664565b60005b83518110156135595761354686838151811061350f57634e487b7160e01b600052603260045260246000fd5b60200260200101518686848151811061353857634e487b7160e01b600052603260045260246000fd5b602002602001015186612859565b508061355181614a6d565b9150506134e3565b508061356481614a6d565b91505061343f565b6040516370a0823160e01b815230600482015260009081906001600160a01b038616906370a082319060240160206040518083038186803b1580156135b057600080fd5b505afa1580156135c4573d6000803e3d6000fd5b505050506040513d601f19601f820116820180604052508101906135e89190614425565b90506000831180156135fa5750808311155b801561361f57506001600160a01b038416600090815260d3602052604090205460ff16155b156136bd576001600160a01b03808516600090815260d4602052604090205416806136475750835b61365b6001600160a01b0387168286613c43565b806001600160a01b0316856001600160a01b0316876001600160a01b03167fdc7c1e7564002d5cadc48b917c3824db49053ed61f77bbfb3fdcfe2e93912b6c876040516136aa91815260200190565b60405180910390a46000925050506136c2565b829150505b9392505050565b609780546001600160a01b038381166001600160a01b0319831681179093556040519116919082907f8be0079c531659141344cd1fd0a4f28419497f9722a3daafe3b4186f6b6457e090600090a35050565b60008183111561372c57508161372f565b50805b92915050565b60008183101561372c57508161372f565b6001600160a01b03808316600090815260ce60209081526040808320938516835292905290812054158015906136c25750506001600160a01b03918216600090815260ce60209081526040808320939094168252919091522060010154151590565b428082101561381f5760405162461bcd60e51b815260206004820152603c60248201527f74686520656e642074696d657374616d70206d7573742062652067726561746560448201527f72207468616e207468652063757272656e742074696d657374616d70000000006064820152608401610834565b828210156138955760405162461bcd60e51b815260206004820152603a60248201527f74686520656e642074696d657374616d70206d7573742062652067726561746560448201527f72207468616e207468652073746172742074696d657374616d700000000000006064820152608401610834565b8360400151811080156138ab5750836020015181115b80156138ba5750602084015115155b1561393857828460200151146139385760405162461bcd60e51b815260206004820152603960248201527f63616e6e6f74206368616e6765207468652073746172742074696d657374616d60448201527f70206166746572207468652072657761726420737461727473000000000000006064820152608401610834565b50505050565b6001600160a01b03808316600090815260cf60209081526040808320938516835292905290812054158015906136c25750506001600160a01b03918216600090815260cf60209081526040808320939094168252919091522060010154151590565b803b613a045760405162461bcd60e51b815260206004820152602d60248201527f455243313936373a206e657720696d706c656d656e746174696f6e206973206e60448201526c1bdd08184818dbdb9d1c9858dd609a1b6064820152608401610834565b7f360894a13ba1a3210667c828492db98dca3e2076cc3735a920a3ca505d382bbc80546001600160a01b0319166001600160a01b0392909216919091179055565b6060823b613aa45760405162461bcd60e51b815260206004820152602660248201527f416464726573733a2064656c65676174652063616c6c20746f206e6f6e2d636f6044820152651b9d1c9858dd60d21b6064820152608401610834565b600080846001600160a01b031684604051613abf91906145c0565b600060405180830381855af49150503d8060008114613afa576040519150601f19603f3d011682016040523d82523d6000602084013e613aff565b606091505b509150915061265b8282604051806060016040528060278152602001614ad860279139613c95565b613b30816139a0565b6040516001600160a01b038216907fbc7cd75a20ee27fd9adebab32041f755214dbc6bffa90cc0225b39da2e5c2d3b90600090a250565b600054610100900460ff1680613b80575060005460ff16155b613b9c5760405162461bcd60e51b815260040161083490614844565b600054610100900460ff1615801561327f576000805460ff1961ff001990911661010017166001179055801561104f576000805461ff001916905550565b600054610100900460ff1680613bf3575060005460ff16155b613c0f5760405162461bcd60e51b815260040161083490614844565b600054610100900460ff16158015613c3a576000805460ff1961ff0019909116610100171660011790555b61327f336136c9565b604080516001600160a01b038416602482015260448082018490528251808303909101815260649091019091526020810180516001600160e01b031663a9059cbb60e01b179052611129908490613cce565b60608315613ca45750816136c2565b825115613cb45782518084602001fd5b8160405162461bcd60e51b81526004016108349190614762565b6000613d23826040518060400160405280602081526020017f5361666545524332303a206c6f772d6c6576656c2063616c6c206661696c6564815250856001600160a01b0316613da09092919063ffffffff16565b8051909150156111295780806020019051810190613d419190614388565b6111295760405162461bcd60e51b815260206004820152602a60248201527f5361666545524332303a204552433230206f7065726174696f6e20646964206e6044820152691bdd081cdd58d8d9595960b21b6064820152608401610834565b6060612aa4848460008585843b613df95760405162461bcd60e51b815260206004820152601d60248201527f416464726573733a2063616c6c20746f206e6f6e2d636f6e74726163740000006044820152606401610834565b600080866001600160a01b03168587604051613e1591906145c0565b60006040518083038185875af1925050503d8060008114613e52576040519150601f19603f3d011682016040523d82523d6000602084013e613e57565b606091505b5091509150613e67828286613c95565b979650505050505050565b6040518060600160405280613e85613efc565b8152602001613eae60405180606001604052806000815260200160008152602001600081525090565b8152602001613ed760405180606001604052806000815260200160008152602001600081525090565b905290565b6040518060400160405280613eef613efc565b8152602001600081525090565b604051806060016040528060006001600160a01b0316815260200160608152602001600060ff1681525090565b600082601f830112613f39578081fd5b81356020613f4e613f4983614989565b614959565b8281528181019085830183850287018401881015613f6a578586fd5b855b85811015613f91578135613f7f81614ab4565b84529284019290840190600101613f6c565b5090979650505050505050565b600082601f830112613fae578081fd5b81356020613fbe613f4983614989565b8281528181019085830183850287018401881015613fda578586fd5b855b85811015613f9157813584529284019290840190600101613fdc565b600060208284031215614009578081fd5b81356136c281614ab4565b60008060408385031215614026578081fd5b823561403181614ab4565b9150602083013561404181614ab4565b809150509250929050565b600080600060608486031215614060578081fd5b833561406b81614ab4565b9250602084013561407b81614ab4565b9150604084013561408b81614ab4565b809150509250925092565b600080604083850312156140a8578182fd5b82356140b381614ab4565b915060208301356001600160401b038111156140cd578182fd5b6140d985828601613f29565b9150509250929050565b600080600080600060a086880312156140fa578081fd5b853561410581614ab4565b945060208601356001600160401b0380821115614120578283fd5b61412c89838a01613f29565b95506040880135915080821115614141578283fd5b5061414e88828901613f29565b935050606086013561415f81614ac9565b9150608086013561416f81614ac9565b809150509295509295909350565b600080600080600060a08688031215614194578283fd5b853561419f81614ab4565b945060208601356001600160401b03808211156141ba578485fd5b6141c689838a01613f29565b955060408801359150808211156141db578485fd5b6141e789838a01613f9e565b945060608801359150808211156141fc578283fd5b61420889838a01613f9e565b9350608088013591508082111561421d578283fd5b5061422a88828901613f9e565b9150509295509295909350565b60008060408385031215614249578182fd5b823561425481614ab4565b915060208301356001600160401b0381111561426e578182fd5b8301601f8101851361427e578182fd5b803561428c613f49826149ac565b8181528660208385010111156142a0578384fd5b81602084016020830137908101602001929092525090939092509050565b6000602082840312156142cf578081fd5b81356001600160401b038111156142e4578182fd5b612aa484828501613f29565b60006020808385031215614302578182fd5b82516001600160401b03811115614317578283fd5b8301601f81018513614327578283fd5b8051614335613f4982614989565b8181528381019083850185840285018601891015614351578687fd5b8694505b8385101561437c57805161436881614ab4565b835260019490940193918501918501614355565b50979650505050505050565b600060208284031215614399578081fd5b81516136c281614ac9565b6000602082840312156143b5578081fd5b81516001600160401b038111156143ca578182fd5b8201601f810184136143da578182fd5b80516143e8613f49826149ac565b8181528560208385010111156143fc578384fd5b61265b826020830160208601614a41565b60006020828403121561441e578081fd5b5035919050565b600060208284031215614436578081fd5b5051919050565b600080600060608486031215614451578081fd5b8351925060208401519150604084015190509250925092565b60006020828403121561447b578081fd5b815160ff811681146136c2578182fd5b600081518084526144a3816020860160208601614a41565b601f01601f19169290920160200192915050565b80516001600160a01b0316825260208082015160408285018190528151818601819052600093919260608284028801810193929183019190880190865b8181101561457457605f198a8703018352835160e0815181895261451a828a0182614582565b91505086820151614541888a01828051825260208082015190830152604090810151910152565b509088015180516080890152602081015160a08901526040015160c09097019690965292840192918401916001016144f4565b509398975050505050505050565b600060018060a01b0382511683526020820151606060208501526145a9606085018261448b565b60409384015160ff16949093019390935250919050565b600082516145d2818460208701614a41565b9190910192915050565b6020808252825182820181905260009190848201906040850190845b8181101561461d5783516001600160a01b0316835292840192918401916001016145f8565b50909695505050505050565b6000602080830181845280855180835260408601915060408482028701019250838701855b8281101561467c57603f1988860301845261466a8583516144b7565b9450928501929085019060010161464e565b5092979650505050505050565b60208082528251828201819052600091906040908185019080840286018301878501865b838110156146ee57888303603f19018552815180518785526146d188860182614582565b9189015194890194909452948701949250908601906001016146ad565b509098975050505050505050565b602080825282518282018190526000919060409081850190868401855b8281101561475557815180516001600160a01b031685528681015115158786015285015115158585015260609093019290850190600101614719565b5091979650505050505050565b6000602082526136c2602083018461448b565b60208082526018908201527f72657761726420746f6b656e206e6f7420737570706f72740000000000000000604082015260600190565b6020808252602c908201527f46756e6374696f6e206d7573742062652063616c6c6564207468726f7567682060408201526b19195b1959d85d1958d85b1b60a21b606082015260800190565b6020808252602c908201527f46756e6374696f6e206d7573742062652063616c6c6564207468726f7567682060408201526b6163746976652070726f787960a01b606082015260800190565b6020808252602e908201527f496e697469616c697a61626c653a20636f6e747261637420697320616c72656160408201526d191e481a5b9a5d1a585b1a5e995960921b606082015260800190565b60208082526026908201527f646562746f72206973206e6f7420616c6c6f77656420746f20636c61696d207260408201526565776172647360d01b606082015260800190565b6020808252600c908201526b1d5b985d5d1a1bdc9a5e995960a21b604082015260600190565b6020808252818101527f4f776e61626c653a2063616c6c6572206973206e6f7420746865206f776e6572604082015260600190565b6000602082526136c260208301846144b7565b6000602082526136c26020830184614582565b604051601f8201601f191681016001600160401b038111828210171561498157614981614a9e565b604052919050565b60006001600160401b038211156149a2576149a2614a9e565b5060209081020190565b60006001600160401b038211156149c5576149c5614a9e565b50601f01601f191660200190565b600082198211156149e6576149e6614a88565b500190565b600082614a0657634e487b7160e01b81526012600452602481fd5b500490565b6000816000190483118215151615614a2557614a25614a88565b500290565b600082821015614a3c57614a3c614a88565b500390565b60005b83811015614a5c578181015183820152602001614a44565b838111156139385750506000910152565b6000600019821415614a8157614a81614a88565b5060010190565b634e487b7160e01b600052601160045260246000fd5b634e487b7160e01b600052604160045260246000fd5b6001600160a01b038116811461104f57600080fd5b801515811461104f57600080fdfe416464726573733a206c6f772d6c6576656c2064656c65676174652063616c6c206661696c6564a2646970667358221220ab8cde3e03c97954edc0a719a1c9b5571b1a4c1fe95c4f8dccf9c5c81e8f3aab64736f6c63430008020033",
  "devdoc": {
    "kind": "dev",
    "methods": {
      "addRewardToken(address)": {
        "params": {
          "rewardToken": "The new reward token"
        }
      },
      "claimAllRewards(address)": {
        "params": {
          "account": "The account address"
        }
      },
      "claimRewards(address,address[],address[],bool,bool)": {
        "params": {
          "account": "The account address",
          "borrowers": "Whether or not to claim rewards earned by borrowing",
          "cTokens": "The list of markets to claim rewards in",
          "rewards": "The list of reward tokens to claim",
          "suppliers": "Whether or not to claim rewards earned by supplying"
        }
      },
      "claimSingleReward(address,address)": {
        "details": "This function is not efficient for claiming user rewards but it's useful to get the user related markets by using a staticcall.",
        "params": {
          "account": "The account address",
          "reward": "The reward token address"
        },
        "returns": {
          "_0": "The list of user related markets"
        }
      },
      "getAllMarketRewardSpeeds()": {
        "returns": {
          "_0": "The list of reward speed info"
        }
      },
      "getBlockTimestamp()": {
        "returns": {
          "_0": "The current block timestamp"
        }
      },
      "getMarketRewardSpeeds(address)": {
        "params": {
          "cToken": "The market address"
        },
        "returns": {
          "_0": "The market reward speed info"
        }
      },
      "getRewardTokenInfo(address)": {
        "params": {
          "rewardToken": "The reward token address"
        },
        "returns": {
          "_0": "The reward token info"
        }
      },
      "getRewardTokenList()": {
        "returns": {
          "_0": "The list of reward token addresses"
        }
      },
      "getRewardsAvailable(address)": {
        "details": "This function is normally used by staticcall.",
        "params": {
          "account": "The user address"
        },
        "returns": {
          "_0": "The list of user available rewards"
        }
      },
      "owner()": {
        "details": "Returns the address of the current owner."
      },
      "renounceOwnership()": {
        "details": "Leaves the contract without owner. It will not be possible to call `onlyOwner` functions anymore. Can only be called by the current owner. NOTE: Renouncing ownership will leave the contract without an owner, thereby removing any functionality that is only available to the owner."
      },
      "setRewardBorrowSpeeds(address,address[],uint256[],uint256[],uint256[])": {
        "params": {
          "cTokens": "The addresses of cTokens",
          "ends": "The list of end timestamps",
          "rewardToken": "The reward token",
          "speeds": "The list of reward speeds",
          "starts": "The list of start timestamps"
        }
      },
      "setRewardSupplySpeeds(address,address[],uint256[],uint256[],uint256[])": {
        "params": {
          "cTokens": "The addresses of cTokens",
          "ends": "The list of end timestamps",
          "rewardToken": "The reward token",
          "speeds": "The list of reward speeds",
          "starts": "The list of start timestamps"
        }
      },
      "setRewardsReceiver(address,address)": {
        "params": {
          "account": "The account address",
          "receiver": "The receiver address"
        }
      },
      "transferOwnership(address)": {
        "details": "Transfers ownership of the contract to a new account (`newOwner`). Can only be called by the current owner."
      },
      "updateBorrowIndex(address,address[])": {
        "params": {
          "borrowers": "The related borrowers",
          "cToken": "The market whose borrow index to update"
        }
      },
      "updateDebtors(address[])": {
        "params": {
          "accounts": "The list of accounts to be updated"
        }
      },
      "updateSupplyIndex(address,address[])": {
        "params": {
          "cToken": "The market whose supply index to update",
          "suppliers": "The related suppliers"
        }
      },
      "upgradeTo(address)": {
        "details": "Upgrade the implementation of the proxy to `newImplementation`. Calls {_authorizeUpgrade}. Emits an {Upgraded} event."
      },
      "upgradeToAndCall(address,bytes)": {
        "details": "Upgrade the implementation of the proxy to `newImplementation`, and subsequently execute the function call encoded in `data`. Calls {_authorizeUpgrade}. Emits an {Upgraded} event."
      }
    },
    "version": 1
  },
  "userdoc": {
    "events": {
      "TransferReward(address,address,address,uint256)": {
        "notice": "Emitted when rewards are transferred to a user"
      },
      "UpdateBorrowRewardSpeed(address,address,uint256,uint256,uint256)": {
        "notice": "Emitted when a market's reward borrow speed is updated"
      },
      "UpdateBorrowerRewardIndex(address,address,address,uint256,uint256)": {
        "notice": "Emitted when a borrower's reward borrower index is updated"
      },
      "UpdateDebtor(address,bool)": {
        "notice": "Emitted when a debtor is updated"
      },
      "UpdateRewardReceiver(address,address)": {
        "notice": "Emitted when a reward receiver is updated"
      },
      "UpdateSupplierRewardIndex(address,address,address,uint256,uint256)": {
        "notice": "Emitted when a supplier's reward supply index is updated"
      },
      "UpdateSupplyRewardSpeed(address,address,uint256,uint256,uint256)": {
        "notice": "Emitted when a market's reward supply speed is updated"
      }
    },
    "kind": "user",
    "methods": {
      "addRewardToken(address)": {
        "notice": "Add new reward token. Revert if the reward token has been added"
      },
      "claimAllRewards(address)": {
        "notice": "Claim all the rewards accrued by holder in all markets"
      },
      "claimRewards(address,address[],address[],bool,bool)": {
        "notice": "Claim the rewards accrued by the account"
      },
      "claimSingleReward(address,address)": {
        "notice": "Claim the rewards accrued by one account and a specifc reward token"
      },
      "comptroller()": {
        "notice": "The comptroller that wants to distribute rewards."
      },
      "debtors(address)": {
        "notice": "The debtors who can't claim rewards until their bad debts are repaid."
      },
      "getAllMarketRewardSpeeds()": {
        "notice": "Get all market reward speed info."
      },
      "getBlockTimestamp()": {
        "notice": "Return the current block timestamp."
      },
      "getMarketRewardSpeeds(address)": {
        "notice": "Get reward speed info by market."
      },
      "getRewardTokenInfo(address)": {
        "notice": "Get reward token info."
      },
      "getRewardTokenList()": {
        "notice": "Return the reward token list."
      },
      "getRewardsAvailable(address)": {
        "notice": "Get user all available rewards."
      },
      "initialize(address,address)": {
        "notice": "Initialize the contract with admin and comptroller"
      },
      "rewardAccrued(address,address)": {
        "notice": "The reward accrued but not yet transferred to each user"
      },
      "rewardBorrowSpeeds(address,address)": {
        "notice": "The reward speeds of each reward token for every borrow market"
      },
      "rewardBorrowState(address,address)": {
        "notice": "The market reward borrow state for each market"
      },
      "rewardBorrowerIndex(address,address,address)": {
        "notice": "The borrow index for each market for each borrower as of the last time they accrued rewards"
      },
      "rewardReceivers(address)": {
        "notice": "The reward delegate receiver of users."
      },
      "rewardSupplierIndex(address,address,address)": {
        "notice": "The supply index for each market for each supplier as of the last time they accrued rewards"
      },
      "rewardSupplySpeeds(address,address)": {
        "notice": "The reward speeds of each reward token for every supply market"
      },
      "rewardSupplyState(address,address)": {
        "notice": "The market reward supply state for each market"
      },
      "rewardTokens(uint256)": {
        "notice": "The support reward tokens."
      },
      "rewardTokensMap(address)": {
        "notice": "The support reward tokens."
      },
      "setRewardBorrowSpeeds(address,address[],uint256[],uint256[],uint256[])": {
        "notice": "Set cTokens reward borrow speeds"
      },
      "setRewardSupplySpeeds(address,address[],uint256[],uint256[],uint256[])": {
        "notice": "Set cTokens reward supply speeds"
      },
      "setRewardsReceiver(address,address)": {
        "notice": "Set the reward delegate receiver for an account"
      },
      "updateBorrowIndex(address,address[])": {
        "notice": "Accrue rewards to the market by updating the borrow index and calculate rewards accrued by borrowers"
      },
      "updateDebtors(address[])": {
        "notice": "Update accounts to be debtors or not. Debtors couldn't claim rewards until their bad debts are repaid."
      },
      "updateSupplyIndex(address,address[])": {
        "notice": "Accrue rewards to the market by updating the supply index and calculate rewards accrued by suppliers"
      }
    },
    "version": 1
  },
  "storageLayout": {
    "storage": [
      {
        "astId": 538,
        "contract": "contracts/LiquidityMining.sol:LiquidityMining",
        "label": "_initialized",
        "offset": 0,
        "slot": "0",
        "type": "t_bool"
      },
      {
        "astId": 541,
        "contract": "contracts/LiquidityMining.sol:LiquidityMining",
        "label": "_initializing",
        "offset": 1,
        "slot": "0",
        "type": "t_bool"
      },
      {
        "astId": 521,
        "contract": "contracts/LiquidityMining.sol:LiquidityMining",
        "label": "__gap",
        "offset": 0,
        "slot": "1",
        "type": "t_array(t_uint256)50_storage"
      },
      {
        "astId": 688,
        "contract": "contracts/LiquidityMining.sol:LiquidityMining",
        "label": "__gap",
        "offset": 0,
        "slot": "51",
        "type": "t_array(t_uint256)50_storage"
      },
      {
        "astId": 977,
        "contract": "contracts/LiquidityMining.sol:LiquidityMining",
        "label": "__gap",
        "offset": 0,
        "slot": "101",
        "type": "t_array(t_uint256)50_storage"
      },
      {
        "astId": 10,
        "contract": "contracts/LiquidityMining.sol:LiquidityMining",
        "label": "_owner",
        "offset": 0,
        "slot": "151",
        "type": "t_address"
      },
      {
        "astId": 123,
        "contract": "contracts/LiquidityMining.sol:LiquidityMining",
        "label": "__gap",
        "offset": 0,
        "slot": "152",
        "type": "t_array(t_uint256)49_storage"
      },
      {
        "astId": 4923,
        "contract": "contracts/LiquidityMining.sol:LiquidityMining",
        "label": "comptroller",
        "offset": 0,
        "slot": "201",
        "type": "t_address"
      },
      {
        "astId": 4927,
        "contract": "contracts/LiquidityMining.sol:LiquidityMining",
        "label": "rewardTokens",
        "offset": 0,
        "slot": "202",
        "type": "t_array(t_address)dyn_storage"
      },
      {
        "astId": 4932,
        "contract": "contracts/LiquidityMining.sol:LiquidityMining",
        "label": "rewardTokensMap",
        "offset": 0,
        "slot": "203",
        "type": "t_mapping(t_address,t_bool)"
      },
      {
        "astId": 4947,
        "contract": "contracts/LiquidityMining.sol:LiquidityMining",
        "label": "rewardSupplySpeeds",
        "offset": 0,
        "slot": "204",
        "type": "t_mapping(t_address,t_mapping(t_address,t_struct(RewardSpeed)4939_storage))"
      },
      {
        "astId": 4955,
        "contract": "contracts/LiquidityMining.sol:LiquidityMining",
        "label": "rewardBorrowSpeeds",
        "offset": 0,
        "slot": "205",
        "type": "t_mapping(t_address,t_mapping(t_address,t_struct(RewardSpeed)4939_storage))"
      },
      {
        "astId": 4968,
        "contract": "contracts/LiquidityMining.sol:LiquidityMining",
        "label": "rewardSupplyState",
        "offset": 0,
        "slot": "206",
        "type": "t_mapping(t_address,t_mapping(t_address,t_struct(RewardState)4960_storage))"
      },
      {
        "astId": 4976,
        "contract": "contracts/LiquidityMining.sol:LiquidityMining",
        "label": "rewardBorrowState",
        "offset": 0,
        "slot": "207",
        "type": "t_mapping(t_address,t_mapping(t_address,t_struct(RewardState)4960_storage))"
      },
      {
        "astId": 4985,
        "contract": "contracts/LiquidityMining.sol:LiquidityMining",
        "label": "rewardSupplierIndex",
        "offset": 0,
        "slot": "208",
        "type": "t_mapping(t_address,t_mapping(t_address,t_mapping(t_address,t_uint256)))"
      },
      {
        "astId": 4994,
        "contract": "contracts/LiquidityMining.sol:LiquidityMining",
        "label": "rewardBorrowerIndex",
        "offset": 0,
        "slot": "209",
        "type": "t_mapping(t_address,t_mapping(t_address,t_mapping(t_address,t_uint256)))"
      },
      {
        "astId": 5001,
        "contract": "contracts/LiquidityMining.sol:LiquidityMining",
        "label": "rewardAccrued",
        "offset": 0,
        "slot": "210",
        "type": "t_mapping(t_address,t_mapping(t_address,t_uint256))"
      },
      {
        "astId": 5006,
        "contract": "contracts/LiquidityMining.sol:LiquidityMining",
        "label": "debtors",
        "offset": 0,
        "slot": "211",
        "type": "t_mapping(t_address,t_bool)"
      },
      {
        "astId": 5011,
        "contract": "contracts/LiquidityMining.sol:LiquidityMining",
        "label": "rewardReceivers",
        "offset": 0,
        "slot": "212",
        "type": "t_mapping(t_address,t_address)"
      }
    ],
    "types": {
      "t_address": {
        "encoding": "inplace",
        "label": "address",
        "numberOfBytes": "20"
      },
      "t_array(t_address)dyn_storage": {
        "base": "t_address",
        "encoding": "dynamic_array",
        "label": "address[]",
        "numberOfBytes": "32"
      },
      "t_array(t_uint256)49_storage": {
        "base": "t_uint256",
        "encoding": "inplace",
        "label": "uint256[49]",
        "numberOfBytes": "1568"
      },
      "t_array(t_uint256)50_storage": {
        "base": "t_uint256",
        "encoding": "inplace",
        "label": "uint256[50]",
        "numberOfBytes": "1600"
      },
      "t_bool": {
        "encoding": "inplace",
        "label": "bool",
        "numberOfBytes": "1"
      },
      "t_mapping(t_address,t_address)": {
        "encoding": "mapping",
        "key": "t_address",
        "label": "mapping(address => address)",
        "numberOfBytes": "32",
        "value": "t_address"
      },
      "t_mapping(t_address,t_bool)": {
        "encoding": "mapping",
        "key": "t_address",
        "label": "mapping(address => bool)",
        "numberOfBytes": "32",
        "value": "t_bool"
      },
      "t_mapping(t_address,t_mapping(t_address,t_mapping(t_address,t_uint256)))": {
        "encoding": "mapping",
        "key": "t_address",
        "label": "mapping(address => mapping(address => mapping(address => uint256)))",
        "numberOfBytes": "32",
        "value": "t_mapping(t_address,t_mapping(t_address,t_uint256))"
      },
      "t_mapping(t_address,t_mapping(t_address,t_struct(RewardSpeed)4939_storage))": {
        "encoding": "mapping",
        "key": "t_address",
        "label": "mapping(address => mapping(address => struct LiquidityMiningStorage.RewardSpeed))",
        "numberOfBytes": "32",
        "value": "t_mapping(t_address,t_struct(RewardSpeed)4939_storage)"
      },
      "t_mapping(t_address,t_mapping(t_address,t_struct(RewardState)4960_storage))": {
        "encoding": "mapping",
        "key": "t_address",
        "label": "mapping(address => mapping(address => struct LiquidityMiningStorage.RewardState))",
        "numberOfBytes": "32",
        "value": "t_mapping(t_address,t_struct(RewardState)4960_storage)"
      },
      "t_mapping(t_address,t_mapping(t_address,t_uint256))": {
        "encoding": "mapping",
        "key": "t_address",
        "label": "mapping(address => mapping(address => uint256))",
        "numberOfBytes": "32",
        "value": "t_mapping(t_address,t_uint256)"
      },
      "t_mapping(t_address,t_struct(RewardSpeed)4939_storage)": {
        "encoding": "mapping",
        "key": "t_address",
        "label": "mapping(address => struct LiquidityMiningStorage.RewardSpeed)",
        "numberOfBytes": "32",
        "value": "t_struct(RewardSpeed)4939_storage"
      },
      "t_mapping(t_address,t_struct(RewardState)4960_storage)": {
        "encoding": "mapping",
        "key": "t_address",
        "label": "mapping(address => struct LiquidityMiningStorage.RewardState)",
        "numberOfBytes": "32",
        "value": "t_struct(RewardState)4960_storage"
      },
      "t_mapping(t_address,t_uint256)": {
        "encoding": "mapping",
        "key": "t_address",
        "label": "mapping(address => uint256)",
        "numberOfBytes": "32",
        "value": "t_uint256"
      },
      "t_struct(RewardSpeed)4939_storage": {
        "encoding": "inplace",
        "label": "struct LiquidityMiningStorage.RewardSpeed",
        "members": [
          {
            "astId": 4934,
            "contract": "contracts/LiquidityMining.sol:LiquidityMining",
            "label": "speed",
            "offset": 0,
            "slot": "0",
            "type": "t_uint256"
          },
          {
            "astId": 4936,
            "contract": "contracts/LiquidityMining.sol:LiquidityMining",
            "label": "start",
            "offset": 0,
            "slot": "1",
            "type": "t_uint256"
          },
          {
            "astId": 4938,
            "contract": "contracts/LiquidityMining.sol:LiquidityMining",
            "label": "end",
            "offset": 0,
            "slot": "2",
            "type": "t_uint256"
          }
        ],
        "numberOfBytes": "96"
      },
      "t_struct(RewardState)4960_storage": {
        "encoding": "inplace",
        "label": "struct LiquidityMiningStorage.RewardState",
        "members": [
          {
            "astId": 4957,
            "contract": "contracts/LiquidityMining.sol:LiquidityMining",
            "label": "index",
            "offset": 0,
            "slot": "0",
            "type": "t_uint256"
          },
          {
            "astId": 4959,
            "contract": "contracts/LiquidityMining.sol:LiquidityMining",
            "label": "timestamp",
            "offset": 0,
            "slot": "1",
            "type": "t_uint256"
          }
        ],
        "numberOfBytes": "64"
      },
      "t_uint256": {
        "encoding": "inplace",
        "label": "uint256",
        "numberOfBytes": "32"
      }
    }
  }
}