{
  "address": "0xBe33aD085e4a5559e964FA8790ceB83905062065",
  "abi": [
    {
      "inputs": [
        {
          "internalType": "contract LiquidityMining",
          "name": "_liquidityMining",
          "type": "address"
        }
      ],
      "stateMutability": "nonpayable",
      "type": "constructor"
    },
    {
      "inputs": [
        {
          "internalType": "address[]",
          "name": "cTokens",
          "type": "address[]"
        }
      ],
      "name": "getAllMarketRewardSpeeds",
      "outputs": [
        {
          "components": [
            {
              "internalType": "address",
              "name": "cToken",
              "type": "address"
            },
            {
              "components": [
                {
                  "components": [
                    {
                      "internalType": "address",
                      "name": "rewardTokenAddress",
                      "type": "address"
                    },
                    {
                      "internalType": "string",
                      "name": "rewardTokenSymbol",
                      "type": "string"
                    },
                    {
                      "internalType": "uint8",
                      "name": "rewardTokenDecimals",
                      "type": "uint8"
                    }
                  ],
                  "internalType": "struct LiquidityMiningLens.RewardTokenInfo",
                  "name": "rewardToken",
                  "type": "tuple"
                },
                {
                  "components": [
                    {
                      "internalType": "uint256",
                      "name": "speed",
                      "type": "uint256"
                    },
                    {
                      "internalType": "uint256",
                      "name": "start",
                      "type": "uint256"
                    },
                    {
                      "internalType": "uint256",
                      "name": "end",
                      "type": "uint256"
                    }
                  ],
                  "internalType": "struct LiquidityMiningLens.RewardSpeed",
                  "name": "supplySpeed",
                  "type": "tuple"
                },
                {
                  "components": [
                    {
                      "internalType": "uint256",
                      "name": "speed",
                      "type": "uint256"
                    },
                    {
                      "internalType": "uint256",
                      "name": "start",
                      "type": "uint256"
                    },
                    {
                      "internalType": "uint256",
                      "name": "end",
                      "type": "uint256"
                    }
                  ],
                  "internalType": "struct LiquidityMiningLens.RewardSpeed",
                  "name": "borrowSpeed",
                  "type": "tuple"
                }
              ],
              "internalType": "struct LiquidityMiningLens.RewardSpeedInfo[]",
              "name": "rewardSpeeds",
              "type": "tuple[]"
            }
          ],
          "internalType": "struct LiquidityMiningLens.MarketRewardSpeed[]",
          "name": "",
          "type": "tuple[]"
        }
      ],
      "stateMutability": "view",
      "type": "function"
    },
    {
      "inputs": [
        {
          "internalType": "address",
          "name": "cToken",
          "type": "address"
        }
      ],
      "name": "getMarketRewardSpeeds",
      "outputs": [
        {
          "components": [
            {
              "internalType": "address",
              "name": "cToken",
              "type": "address"
            },
            {
              "components": [
                {
                  "components": [
                    {
                      "internalType": "address",
                      "name": "rewardTokenAddress",
                      "type": "address"
                    },
                    {
                      "internalType": "string",
                      "name": "rewardTokenSymbol",
                      "type": "string"
                    },
                    {
                      "internalType": "uint8",
                      "name": "rewardTokenDecimals",
                      "type": "uint8"
                    }
                  ],
                  "internalType": "struct LiquidityMiningLens.RewardTokenInfo",
                  "name": "rewardToken",
                  "type": "tuple"
                },
                {
                  "components": [
                    {
                      "internalType": "uint256",
                      "name": "speed",
                      "type": "uint256"
                    },
                    {
                      "internalType": "uint256",
                      "name": "start",
                      "type": "uint256"
                    },
                    {
                      "internalType": "uint256",
                      "name": "end",
                      "type": "uint256"
                    }
                  ],
                  "internalType": "struct LiquidityMiningLens.RewardSpeed",
                  "name": "supplySpeed",
                  "type": "tuple"
                },
                {
                  "components": [
                    {
                      "internalType": "uint256",
                      "name": "speed",
                      "type": "uint256"
                    },
                    {
                      "internalType": "uint256",
                      "name": "start",
                      "type": "uint256"
                    },
                    {
                      "internalType": "uint256",
                      "name": "end",
                      "type": "uint256"
                    }
                  ],
                  "internalType": "struct LiquidityMiningLens.RewardSpeed",
                  "name": "borrowSpeed",
                  "type": "tuple"
                }
              ],
              "internalType": "struct LiquidityMiningLens.RewardSpeedInfo[]",
              "name": "rewardSpeeds",
              "type": "tuple[]"
            }
          ],
          "internalType": "struct LiquidityMiningLens.MarketRewardSpeed",
          "name": "",
          "type": "tuple"
        }
      ],
      "stateMutability": "view",
      "type": "function"
    },
    {
      "inputs": [
        {
          "internalType": "address",
          "name": "rewardToken",
          "type": "address"
        }
      ],
      "name": "getRewardTokenInfo",
      "outputs": [
        {
          "components": [
            {
              "internalType": "address",
              "name": "rewardTokenAddress",
              "type": "address"
            },
            {
              "internalType": "string",
              "name": "rewardTokenSymbol",
              "type": "string"
            },
            {
              "internalType": "uint8",
              "name": "rewardTokenDecimals",
              "type": "uint8"
            }
          ],
          "internalType": "struct LiquidityMiningLens.RewardTokenInfo",
          "name": "",
          "type": "tuple"
        }
      ],
      "stateMutability": "view",
      "type": "function"
    },
    {
      "inputs": [
        {
          "internalType": "address",
          "name": "account",
          "type": "address"
        }
      ],
      "name": "getRewardsAvailable",
      "outputs": [
        {
          "components": [
            {
              "components": [
                {
                  "internalType": "address",
                  "name": "rewardTokenAddress",
                  "type": "address"
                },
                {
                  "internalType": "string",
                  "name": "rewardTokenSymbol",
                  "type": "string"
                },
                {
                  "internalType": "uint8",
                  "name": "rewardTokenDecimals",
                  "type": "uint8"
                }
              ],
              "internalType": "struct LiquidityMiningLens.RewardTokenInfo",
              "name": "rewardToken",
              "type": "tuple"
            },
            {
              "internalType": "uint256",
              "name": "amount",
              "type": "uint256"
            }
          ],
          "internalType": "struct LiquidityMiningLens.RewardAvailable[]",
          "name": "",
          "type": "tuple[]"
        }
      ],
      "stateMutability": "nonpayable",
      "type": "function"
    },
    {
      "inputs": [],
      "name": "liquidityMining",
      "outputs": [
        {
          "internalType": "contract LiquidityMining",
          "name": "",
          "type": "address"
        }
      ],
      "stateMutability": "view",
      "type": "function"
    }
  ],
  "transactionHash": "0xb15c4036eb029a1bcbb01d7a163d35b60bc36202324e691403cde06c502eefa5",
  "args": [
    "0xEFCF8AE4ee301607f6188Eb2A301e201795C9885"
  ],
  "numDeployments": 1,
  "solcInputHash": "d1312082e23a94c9e06e25fcdbccf791",
  "bytecode": "0x608060405234801561001057600080fd5b5060405161138238038061138283398101604081905261002f91610054565b600080546001600160a01b0319166001600160a01b0392909216919091179055610082565b600060208284031215610065578081fd5b81516001600160a01b038116811461007b578182fd5b9392505050565b6112f1806100916000396000f3fe608060405234801561001057600080fd5b50600436106100575760003560e01c80635f15ff421461005c5780637a6856771461008557806385b2d535146100a5578063b2146210146100d0578063b2989f5d146100f0575b600080fd5b61006f61006a366004610d52565b610110565b60405161007c919061119a565b60405180910390f35b610098610093366004610d52565b6104b5565b60405161007c9190611127565b6000546100b8906001600160a01b031681565b6040516001600160a01b03909116815260200161007c565b6100e36100de366004610d91565b6108a9565b60405161007c91906110c7565b6101036100fe366004610d52565b61099f565b60405161007c91906111ad565b60408051808201909152600081526060602082015260008060009054906101000a90046001600160a01b03166001600160a01b031663969133a86040518163ffffffff1660e01b815260040160006040518083038186803b15801561017457600080fd5b505afa158015610188573d6000803e3d6000fd5b505050506040513d6000823e601f3d908101601f191682016040526101b09190810190610e2f565b90506000815167ffffffffffffffff8111156101dc57634e487b7160e01b600052604160045260246000fd5b60405190808252806020026020018201604052801561021557816020015b610202610c9b565b8152602001906001900390816101fa5790505b50905060005b825181101561048c57600080548451829182916001600160a01b0390911690635fd85d2f9088908790811061026057634e487b7160e01b600052603260045260246000fd5b60200260200101518a6040518363ffffffff1660e01b815260040161029b9291906001600160a01b0392831681529116602082015260400190565b60606040518083038186803b1580156102b357600080fd5b505afa1580156102c7573d6000803e3d6000fd5b505050506040513d601f19601f820116820180604052508101906102eb9190610f5b565b92509250925060008060008060009054906101000a90046001600160a01b03166001600160a01b0316635f3b28028a898151811061033957634e487b7160e01b600052603260045260246000fd5b60200260200101518d6040518363ffffffff1660e01b81526004016103749291906001600160a01b0392831681529116602082015260400190565b60606040518083038186803b15801561038c57600080fd5b505afa1580156103a0573d6000803e3d6000fd5b505050506040513d601f19601f820116820180604052508101906103c49190610f5b565b92509250925060405180606001604052806104058b8a815181106103f857634e487b7160e01b600052603260045260246000fd5b602002602001015161099f565b8152602001604051806060016040528089815260200188815260200187815250815260200160405180606001604052808681526020018581526020018481525081525088888151811061046857634e487b7160e01b600052603260045260246000fd5b602002602001018190525050505050505080806104849061125c565b91505061021b565b506040518060400160405280856001600160a01b0316815260200182815250925050505b919050565b60008054604080516312d2267560e31b81529051606093926001600160a01b03169163969133a89160048083019286929190829003018186803b1580156104fb57600080fd5b505afa15801561050f573d6000803e3d6000fd5b505050506040513d6000823e601f3d908101601f191682016040526105379190810190610e2f565b90506000815167ffffffffffffffff81111561056357634e487b7160e01b600052604160045260246000fd5b60405190808252806020026020018201604052801561058c578160200160208202803683370190505b5090506000825167ffffffffffffffff8111156105b957634e487b7160e01b600052604160045260246000fd5b6040519080825280602002602001820160405280156105f257816020015b6105df610d05565b8152602001906001900390816105d75790505b50905060005b83518110156106e35783818151811061062157634e487b7160e01b600052603260045260246000fd5b60209081029190910101516040516370a0823160e01b81526001600160a01b038881166004830152909116906370a082319060240160206040518083038186803b15801561066e57600080fd5b505afa158015610682573d6000803e3d6000fd5b505050506040513d601f19601f820116820180604052508101906106a69190610f43565b8382815181106106c657634e487b7160e01b600052603260045260246000fd5b6020908102919091010152806106db8161125c565b9150506105f8565b5060005460405163e991560f60e01b81526001600160a01b0387811660048301529091169063e991560f90602401600060405180830381600087803b15801561072b57600080fd5b505af115801561073f573d6000803e3d6000fd5b5050505060005b83518110156108a057600084828151811061077157634e487b7160e01b600052603260045260246000fd5b60209081029190910101516040516370a0823160e01b81526001600160a01b038981166004830152909116906370a082319060240160206040518083038186803b1580156107be57600080fd5b505afa1580156107d2573d6000803e3d6000fd5b505050506040513d601f19601f820116820180604052508101906107f69190610f43565b905060405180604001604052806108268785815181106103f857634e487b7160e01b600052603260045260246000fd5b815260200185848151811061084b57634e487b7160e01b600052603260045260246000fd5b60200260200101518361085e9190611215565b81525083838151811061088157634e487b7160e01b600052603260045260246000fd5b60200260200101819052505080806108989061125c565b915050610746565b50949350505050565b60606000825167ffffffffffffffff8111156108d557634e487b7160e01b600052604160045260246000fd5b60405190808252806020026020018201604052801561091b57816020015b6040805180820190915260008152606060208201528152602001906001900390816108f35790505b50905060005b83518110156109985761095a84828151811061094d57634e487b7160e01b600052603260045260246000fd5b6020026020010151610110565b82828151811061097a57634e487b7160e01b600052603260045260246000fd5b602002602001018190525080806109909061125c565b915050610921565b5092915050565b6109a7610d25565b60008054906101000a90046001600160a01b03166001600160a01b03166341398b156040518163ffffffff1660e01b815260040160206040518083038186803b1580156109f357600080fd5b505afa158015610a07573d6000803e3d6000fd5b505050506040513d601f19601f82011682018060405250810190610a2b9190610d75565b6001600160a01b0316826001600160a01b03161415610b8a5760408051808201909152600381526208aa8960eb1b60208201526038461415610a87575060408051808201909152600381526221272160e91b6020820152610ad7565b4660891415610ab257506040805180820190915260058152644d4154494360d81b6020820152610ad7565b4660fa1415610ad7575060408051808201909152600381526246544d60e81b60208201525b604051806060016040528060008054906101000a90046001600160a01b03166001600160a01b03166341398b156040518163ffffffff1660e01b815260040160206040518083038186803b158015610b2e57600080fd5b505afa158015610b42573d6000803e3d6000fd5b505050506040513d601f19601f82011682018060405250810190610b669190610d75565b6001600160a01b03168152602001828152602001601260ff168152509150506104b0565b6040518060600160405280836001600160a01b03168152602001836001600160a01b03166395d89b416040518163ffffffff1660e01b815260040160006040518083038186803b158015610bdd57600080fd5b505afa158015610bf1573d6000803e3d6000fd5b505050506040513d6000823e601f3d908101601f19168201604052610c199190810190610ebc565b8152602001836001600160a01b031663313ce5676040518163ffffffff1660e01b815260040160206040518083038186803b158015610c5757600080fd5b505afa158015610c6b573d6000803e3d6000fd5b505050506040513d601f19601f82011682018060405250810190610c8f9190610f88565b60ff16905290506104b0565b6040518060600160405280610cae610d25565b8152602001610cd760405180606001604052806000815260200160008152602001600081525090565b8152602001610d0060405180606001604052806000815260200160008152602001600081525090565b905290565b6040518060400160405280610d18610d25565b8152602001600081525090565b604051806060016040528060006001600160a01b0316815260200160608152602001600060ff1681525090565b600060208284031215610d63578081fd5b8135610d6e816112a3565b9392505050565b600060208284031215610d86578081fd5b8151610d6e816112a3565b60006020808385031215610da3578182fd5b823567ffffffffffffffff811115610db9578283fd5b8301601f81018513610dc9578283fd5b8035610ddc610dd7826111f1565b6111c0565b8181528381019083850185840285018601891015610df8578687fd5b8694505b83851015610e23578035610e0f816112a3565b835260019490940193918501918501610dfc565b50979650505050505050565b60006020808385031215610e41578182fd5b825167ffffffffffffffff811115610e57578283fd5b8301601f81018513610e67578283fd5b8051610e75610dd7826111f1565b8181528381019083850185840285018601891015610e91578687fd5b8694505b83851015610e23578051610ea8816112a3565b835260019490940193918501918501610e95565b600060208284031215610ecd578081fd5b815167ffffffffffffffff80821115610ee4578283fd5b818401915084601f830112610ef7578283fd5b815181811115610f0957610f0961128d565b610f1c601f8201601f19166020016111c0565b9150808252856020828501011115610f32578384fd5b6108a081602084016020860161122c565b600060208284031215610f54578081fd5b5051919050565b600080600060608486031215610f6f578182fd5b8351925060208401519150604084015190509250925092565b600060208284031215610f99578081fd5b815160ff81168114610d6e578182fd5b80516001600160a01b0316825260208082015160408285018190528151818601819052600093919260608284028801810193929183019190880190865b8181101561106657605f198a8703018352835160e0815181895261100c828a0182611074565b91505086820151611033888a01828051825260208082015190830152604090810151910152565b509088015180516080890152602081015160a08901526040015160c0909701969096529284019291840191600101610fe6565b509398975050505050505050565b600060018060a01b03825116835260208201516060602085015280518060608601526110a781608087016020850161122c565b60409384015160ff16938501939093525050601f01601f19160160800190565b6000602080830181845280855180835260408601915060408482028701019250838701855b8281101561111a57603f19888603018452611108858351610fa9565b945092850192908501906001016110ec565b5092979650505050505050565b60208082528251828201819052600091906040908185019080840286018301878501865b8381101561118c57888303603f190185528151805187855261116f88860182611074565b91890151948901949094529487019492509086019060010161114b565b509098975050505050505050565b600060208252610d6e6020830184610fa9565b600060208252610d6e6020830184611074565b604051601f8201601f1916810167ffffffffffffffff811182821017156111e9576111e961128d565b604052919050565b600067ffffffffffffffff82111561120b5761120b61128d565b5060209081020190565b60008282101561122757611227611277565b500390565b60005b8381101561124757818101518382015260200161122f565b83811115611256576000848401525b50505050565b600060001982141561127057611270611277565b5060010190565b634e487b7160e01b600052601160045260246000fd5b634e487b7160e01b600052604160045260246000fd5b6001600160a01b03811681146112b857600080fd5b5056fea2646970667358221220ef9c9c46e50ba688d5de9a4c4ec5a4919d02e14a2497c4361c918397cf5bb1ad64736f6c63430008020033",
  "devdoc": {
    "kind": "dev",
    "methods": {
      "getAllMarketRewardSpeeds(address[])": {
        "params": {
          "cTokens": "The market addresses"
        },
        "returns": {
          "_0": "The list of reward speed info"
        }
      },
      "getMarketRewardSpeeds(address)": {
        "params": {
          "cToken": "The market address"
        },
        "returns": {
          "_0": "The market reward speed info"
        }
      },
      "getRewardTokenInfo(address)": {
        "params": {
          "rewardToken": "The reward token address"
        },
        "returns": {
          "_0": "The reward token info"
        }
      },
      "getRewardsAvailable(address)": {
        "details": "This function is normally used by staticcall.",
        "params": {
          "account": "The user address"
        },
        "returns": {
          "_0": "The list of user available rewards"
        }
      }
    },
    "version": 1
  },
  "userdoc": {
    "kind": "user",
    "methods": {
      "getAllMarketRewardSpeeds(address[])": {
        "notice": "Get all market reward speed info."
      },
      "getMarketRewardSpeeds(address)": {
        "notice": "Get reward speed info by market."
      },
      "getRewardTokenInfo(address)": {
        "notice": "Get reward token info."
      },
      "getRewardsAvailable(address)": {
        "notice": "Get user all available rewards."
      }
    },
    "notice": "LiquidityMiningLens This contract is mostly used by front-end to get LM contract information.",
    "version": 1
  },
  "storageLayout": {
    "storage": [
      {
        "astId": 4374,
        "contract": "contracts/LiquidityMiningLens.sol:LiquidityMiningLens",
        "label": "liquidityMining",
        "offset": 0,
        "slot": "0",
        "type": "t_contract(LiquidityMining)4366"
      }
    ],
    "types": {
      "t_contract(LiquidityMining)4366": {
        "encoding": "inplace",
        "label": "contract LiquidityMining",
        "numberOfBytes": "20"
      }
    }
  }
}