{
  "address": "0xc640A79205706062Bf0277A466821A6130A8f78E",
  "abi": [
    {
      "anonymous": false,
      "inputs": [
        {
          "indexed": false,
          "internalType": "address",
          "name": "previousAdmin",
          "type": "address"
        },
        {
          "indexed": false,
          "internalType": "address",
          "name": "newAdmin",
          "type": "address"
        }
      ],
      "name": "AdminChanged",
      "type": "event"
    },
    {
      "anonymous": false,
      "inputs": [
        {
          "indexed": true,
          "internalType": "address",
          "name": "beacon",
          "type": "address"
        }
      ],
      "name": "BeaconUpgraded",
      "type": "event"
    },
    {
      "anonymous": false,
      "inputs": [
        {
          "indexed": true,
          "internalType": "address",
          "name": "previousOwner",
          "type": "address"
        },
        {
          "indexed": true,
          "internalType": "address",
          "name": "newOwner",
          "type": "address"
        }
      ],
      "name": "OwnershipTransferred",
      "type": "event"
    },
    {
      "anonymous": false,
      "inputs": [
        {
          "indexed": true,
          "internalType": "address",
          "name": "rewardToken",
          "type": "address"
        },
        {
          "indexed": true,
          "internalType": "address",
          "name": "account",
          "type": "address"
        },
        {
          "indexed": true,
          "internalType": "uint256",
          "name": "amount",
          "type": "uint256"
        }
      ],
      "name": "TransferReward",
      "type": "event"
    },
    {
      "anonymous": false,
      "inputs": [
        {
          "indexed": true,
          "internalType": "address",
          "name": "rewardToken",
          "type": "address"
        },
        {
          "indexed": true,
          "internalType": "address",
          "name": "cToken",
          "type": "address"
        },
        {
          "indexed": true,
          "internalType": "uint256",
          "name": "speed",
          "type": "uint256"
        },
        {
          "indexed": false,
          "internalType": "uint256",
          "name": "start",
          "type": "uint256"
        },
        {
          "indexed": false,
          "internalType": "uint256",
          "name": "end",
          "type": "uint256"
        }
      ],
      "name": "UpdateBorrowRewardSpeed",
      "type": "event"
    },
    {
      "anonymous": false,
      "inputs": [
        {
          "indexed": true,
          "internalType": "address",
          "name": "rewardToken",
          "type": "address"
        },
        {
          "indexed": true,
          "internalType": "address",
          "name": "cToken",
          "type": "address"
        },
        {
          "indexed": true,
          "internalType": "address",
          "name": "borrower",
          "type": "address"
        },
        {
          "indexed": false,
          "internalType": "uint256",
          "name": "rewards",
          "type": "uint256"
        },
        {
          "indexed": false,
          "internalType": "uint256",
          "name": "borrowIndex",
          "type": "uint256"
        }
      ],
      "name": "UpdateBorrowerRewardIndex",
      "type": "event"
    },
    {
      "anonymous": false,
      "inputs": [
        {
          "indexed": true,
          "internalType": "address",
          "name": "account",
          "type": "address"
        },
        {
          "indexed": true,
          "internalType": "bool",
          "name": "isDebtor",
          "type": "bool"
        }
      ],
      "name": "UpdateDebtor",
      "type": "event"
    },
    {
      "anonymous": false,
      "inputs": [
        {
          "indexed": true,
          "internalType": "address",
          "name": "rewardToken",
          "type": "address"
        },
        {
          "indexed": true,
          "internalType": "address",
          "name": "cToken",
          "type": "address"
        },
        {
          "indexed": true,
          "internalType": "address",
          "name": "supplier",
          "type": "address"
        },
        {
          "indexed": false,
          "internalType": "uint256",
          "name": "rewards",
          "type": "uint256"
        },
        {
          "indexed": false,
          "internalType": "uint256",
          "name": "supplyIndex",
          "type": "uint256"
        }
      ],
      "name": "UpdateSupplierRewardIndex",
      "type": "event"
    },
    {
      "anonymous": false,
      "inputs": [
        {
          "indexed": true,
          "internalType": "address",
          "name": "rewardToken",
          "type": "address"
        },
        {
          "indexed": true,
          "internalType": "address",
          "name": "cToken",
          "type": "address"
        },
        {
          "indexed": true,
          "internalType": "uint256",
          "name": "speed",
          "type": "uint256"
        },
        {
          "indexed": false,
          "internalType": "uint256",
          "name": "start",
          "type": "uint256"
        },
        {
          "indexed": false,
          "internalType": "uint256",
          "name": "end",
          "type": "uint256"
        }
      ],
      "name": "UpdateSupplyRewardSpeed",
      "type": "event"
    },
    {
      "anonymous": false,
      "inputs": [
        {
          "indexed": true,
          "internalType": "address",
          "name": "implementation",
          "type": "address"
        }
      ],
      "name": "Upgraded",
      "type": "event"
    },
    {
      "inputs": [
        {
          "internalType": "address",
          "name": "rewardToken",
          "type": "address"
        }
      ],
      "name": "_addRewardToken",
      "outputs": [],
      "stateMutability": "nonpayable",
      "type": "function"
    },
    {
      "inputs": [
        {
          "internalType": "address",
          "name": "rewardToken",
          "type": "address"
        },
        {
          "internalType": "address[]",
          "name": "cTokens",
          "type": "address[]"
        },
        {
          "internalType": "uint256[]",
          "name": "speeds",
          "type": "uint256[]"
        },
        {
          "internalType": "uint256[]",
          "name": "starts",
          "type": "uint256[]"
        },
        {
          "internalType": "uint256[]",
          "name": "ends",
          "type": "uint256[]"
        }
      ],
      "name": "_setRewardBorrowSpeeds",
      "outputs": [],
      "stateMutability": "nonpayable",
      "type": "function"
    },
    {
      "inputs": [
        {
          "internalType": "address",
          "name": "rewardToken",
          "type": "address"
        },
        {
          "internalType": "address[]",
          "name": "cTokens",
          "type": "address[]"
        },
        {
          "internalType": "uint256[]",
          "name": "speeds",
          "type": "uint256[]"
        },
        {
          "internalType": "uint256[]",
          "name": "starts",
          "type": "uint256[]"
        },
        {
          "internalType": "uint256[]",
          "name": "ends",
          "type": "uint256[]"
        }
      ],
      "name": "_setRewardSupplySpeeds",
      "outputs": [],
      "stateMutability": "nonpayable",
      "type": "function"
    },
    {
      "inputs": [
        {
          "internalType": "address",
          "name": "holder",
          "type": "address"
        }
      ],
      "name": "claimAllRewards",
      "outputs": [],
      "stateMutability": "nonpayable",
      "type": "function"
    },
    {
      "inputs": [
        {
          "internalType": "address[]",
          "name": "holders",
          "type": "address[]"
        },
        {
          "internalType": "address[]",
          "name": "cTokens",
          "type": "address[]"
        },
        {
          "internalType": "address[]",
          "name": "rewards",
          "type": "address[]"
        },
        {
          "internalType": "bool",
          "name": "borrowers",
          "type": "bool"
        },
        {
          "internalType": "bool",
          "name": "suppliers",
          "type": "bool"
        }
      ],
      "name": "claimRewards",
      "outputs": [],
      "stateMutability": "nonpayable",
      "type": "function"
    },
    {
      "inputs": [],
      "name": "comptroller",
      "outputs": [
        {
          "internalType": "address",
          "name": "",
          "type": "address"
        }
      ],
      "stateMutability": "view",
      "type": "function"
    },
    {
      "inputs": [
        {
          "internalType": "address",
          "name": "",
          "type": "address"
        }
      ],
      "name": "debtors",
      "outputs": [
        {
          "internalType": "bool",
          "name": "",
          "type": "bool"
        }
      ],
      "stateMutability": "view",
      "type": "function"
    },
    {
      "inputs": [],
      "name": "ethAddress",
      "outputs": [
        {
          "internalType": "address",
          "name": "",
          "type": "address"
        }
      ],
      "stateMutability": "view",
      "type": "function"
    },
    {
      "inputs": [],
      "name": "getBlockTimestamp",
      "outputs": [
        {
          "internalType": "uint256",
          "name": "",
          "type": "uint256"
        }
      ],
      "stateMutability": "view",
      "type": "function"
    },
    {
      "inputs": [],
      "name": "getRewardTokenList",
      "outputs": [
        {
          "internalType": "address[]",
          "name": "",
          "type": "address[]"
        }
      ],
      "stateMutability": "view",
      "type": "function"
    },
    {
      "inputs": [
        {
          "internalType": "address",
          "name": "_admin",
          "type": "address"
        },
        {
          "internalType": "address",
          "name": "_comptroller",
          "type": "address"
        }
      ],
      "name": "initialize",
      "outputs": [],
      "stateMutability": "nonpayable",
      "type": "function"
    },
    {
      "inputs": [],
      "name": "owner",
      "outputs": [
        {
          "internalType": "address",
          "name": "",
          "type": "address"
        }
      ],
      "stateMutability": "view",
      "type": "function"
    },
    {
      "inputs": [],
      "name": "renounceOwnership",
      "outputs": [],
      "stateMutability": "nonpayable",
      "type": "function"
    },
    {
      "inputs": [
        {
          "internalType": "address",
          "name": "",
          "type": "address"
        },
        {
          "internalType": "address",
          "name": "",
          "type": "address"
        }
      ],
      "name": "rewardAccrued",
      "outputs": [
        {
          "internalType": "uint256",
          "name": "",
          "type": "uint256"
        }
      ],
      "stateMutability": "view",
      "type": "function"
    },
    {
      "inputs": [
        {
          "internalType": "address",
          "name": "",
          "type": "address"
        },
        {
          "internalType": "address",
          "name": "",
          "type": "address"
        }
      ],
      "name": "rewardBorrowSpeeds",
      "outputs": [
        {
          "internalType": "uint256",
          "name": "speed",
          "type": "uint256"
        },
        {
          "internalType": "uint256",
          "name": "start",
          "type": "uint256"
        },
        {
          "internalType": "uint256",
          "name": "end",
          "type": "uint256"
        }
      ],
      "stateMutability": "view",
      "type": "function"
    },
    {
      "inputs": [
        {
          "internalType": "address",
          "name": "",
          "type": "address"
        },
        {
          "internalType": "address",
          "name": "",
          "type": "address"
        }
      ],
      "name": "rewardBorrowState",
      "outputs": [
        {
          "internalType": "uint256",
          "name": "index",
          "type": "uint256"
        },
        {
          "internalType": "uint256",
          "name": "timestamp",
          "type": "uint256"
        }
      ],
      "stateMutability": "view",
      "type": "function"
    },
    {
      "inputs": [
        {
          "internalType": "address",
          "name": "",
          "type": "address"
        },
        {
          "internalType": "address",
          "name": "",
          "type": "address"
        },
        {
          "internalType": "address",
          "name": "",
          "type": "address"
        }
      ],
      "name": "rewardBorrowerIndex",
      "outputs": [
        {
          "internalType": "uint256",
          "name": "",
          "type": "uint256"
        }
      ],
      "stateMutability": "view",
      "type": "function"
    },
    {
      "inputs": [
        {
          "internalType": "address",
          "name": "",
          "type": "address"
        },
        {
          "internalType": "address",
          "name": "",
          "type": "address"
        },
        {
          "internalType": "address",
          "name": "",
          "type": "address"
        }
      ],
      "name": "rewardSupplierIndex",
      "outputs": [
        {
          "internalType": "uint256",
          "name": "",
          "type": "uint256"
        }
      ],
      "stateMutability": "view",
      "type": "function"
    },
    {
      "inputs": [
        {
          "internalType": "address",
          "name": "",
          "type": "address"
        },
        {
          "internalType": "address",
          "name": "",
          "type": "address"
        }
      ],
      "name": "rewardSupplySpeeds",
      "outputs": [
        {
          "internalType": "uint256",
          "name": "speed",
          "type": "uint256"
        },
        {
          "internalType": "uint256",
          "name": "start",
          "type": "uint256"
        },
        {
          "internalType": "uint256",
          "name": "end",
          "type": "uint256"
        }
      ],
      "stateMutability": "view",
      "type": "function"
    },
    {
      "inputs": [
        {
          "internalType": "address",
          "name": "",
          "type": "address"
        },
        {
          "internalType": "address",
          "name": "",
          "type": "address"
        }
      ],
      "name": "rewardSupplyState",
      "outputs": [
        {
          "internalType": "uint256",
          "name": "index",
          "type": "uint256"
        },
        {
          "internalType": "uint256",
          "name": "timestamp",
          "type": "uint256"
        }
      ],
      "stateMutability": "view",
      "type": "function"
    },
    {
      "inputs": [
        {
          "internalType": "uint256",
          "name": "",
          "type": "uint256"
        }
      ],
      "name": "rewardTokens",
      "outputs": [
        {
          "internalType": "address",
          "name": "",
          "type": "address"
        }
      ],
      "stateMutability": "view",
      "type": "function"
    },
    {
      "inputs": [
        {
          "internalType": "address",
          "name": "",
          "type": "address"
        }
      ],
      "name": "rewardTokensMap",
      "outputs": [
        {
          "internalType": "bool",
          "name": "",
          "type": "bool"
        }
      ],
      "stateMutability": "view",
      "type": "function"
    },
    {
      "inputs": [
        {
          "internalType": "address",
          "name": "newOwner",
          "type": "address"
        }
      ],
      "name": "transferOwnership",
      "outputs": [],
      "stateMutability": "nonpayable",
      "type": "function"
    },
    {
      "inputs": [
        {
          "internalType": "address",
          "name": "cToken",
          "type": "address"
        },
        {
          "internalType": "address[]",
          "name": "borrowers",
          "type": "address[]"
        }
      ],
      "name": "updateBorrowIndex",
      "outputs": [],
      "stateMutability": "nonpayable",
      "type": "function"
    },
    {
      "inputs": [
        {
          "internalType": "address[]",
          "name": "accounts",
          "type": "address[]"
        }
      ],
      "name": "updateDebtors",
      "outputs": [],
      "stateMutability": "nonpayable",
      "type": "function"
    },
    {
      "inputs": [
        {
          "internalType": "address",
          "name": "cToken",
          "type": "address"
        },
        {
          "internalType": "address[]",
          "name": "suppliers",
          "type": "address[]"
        }
      ],
      "name": "updateSupplyIndex",
      "outputs": [],
      "stateMutability": "nonpayable",
      "type": "function"
    },
    {
      "inputs": [
        {
          "internalType": "address",
          "name": "newImplementation",
          "type": "address"
        }
      ],
      "name": "upgradeTo",
      "outputs": [],
      "stateMutability": "nonpayable",
      "type": "function"
    },
    {
      "inputs": [
        {
          "internalType": "address",
          "name": "newImplementation",
          "type": "address"
        },
        {
          "internalType": "bytes",
          "name": "data",
          "type": "bytes"
        }
      ],
      "name": "upgradeToAndCall",
      "outputs": [],
      "stateMutability": "payable",
      "type": "function"
    },
    {
      "stateMutability": "payable",
      "type": "receive"
    }
  ],
  "transactionHash": "0xf45545a35466d14c29996462364ceed7888c83f9a2bb027f89472e2068b516a0",
  "args": [],
  "numDeployments": 1,
  "solcInputHash": "d1312082e23a94c9e06e25fcdbccf791",
  "bytecode": "0x608060405234801561001057600080fd5b50613713806100206000396000f3fe6080604052600436106101bb5760003560e01c8063715018a6116100ec578063a3d813b41161008a578063e5029dc811610064578063e5029dc8146105f8578063e991560f14610637578063efbc17fa14610657578063f2fde38b14610677576101c2565b8063a3d813b414610568578063aa6be303146105a8578063e3cec1a2146105d8576101c2565b80638da5cb5b116100c65780638da5cb5b146104e8578063919c224d146105065780639222e57214610526578063969133a814610546576101c2565b8063715018a6146104a0578063796b89b9146104b55780637bb7bed1146104c8576101c2565b8063485cc955116101595780635f3b2802116101335780635f3b2802146103995780635fd85d2f146103fb5780635fe3b5671461044257806360777a4f14610462576101c2565b8063485cc955146103465780634f1ef28614610366578063597b6bba14610379576101c2565b80631f269c34116101955780631f269c3414610272578063317d2abc146102925780633659cfe6146102e657806341398b1514610306576101c2565b8063059123fc146101c75780630bda5be1146101e95780631ad964ed14610234576101c2565b366101c257005b600080fd5b3480156101d357600080fd5b506101e76101e2366004613217565b610697565b005b3480156101f557600080fd5b50610221610204366004612fea565b60d260209081526000928352604080842090915290825290205481565b6040519081526020015b60405180910390f35b34801561024057600080fd5b5061022161024f366004613022565b60d060209081526000938452604080852082529284528284209052825290205481565b34801561027e57600080fd5b506101e761028d3660046130ba565b6108d8565b34801561029e57600080fd5b506102d16102ad366004612fea565b60ce6020908152600092835260408084209091529082529020805460019091015482565b6040805192835260208301919091520161022b565b3480156102f257600080fd5b506101e7610301366004612fce565b610918565b34801561031257600080fd5b5061032e73eeeeeeeeeeeeeeeeeeeeeeeeeeeeeeeeeeeeeeee81565b6040516001600160a01b03909116815260200161022b565b34801561035257600080fd5b506101e7610361366004612fea565b61093f565b6101e7610374366004613175565b6109e2565b34801561038557600080fd5b506101e76103943660046130ba565b6109f7565b3480156103a557600080fd5b506103e06103b4366004612fea565b60cd60209081526000928352604080842090915290825290208054600182015460029092015490919083565b6040805193845260208401929092529082015260600161022b565b34801561040757600080fd5b506103e0610416366004612fea565b60cc60209081526000928352604080842090915290825290208054600182015460029092015490919083565b34801561044e57600080fd5b5060c95461032e906001600160a01b031681565b34801561046e57600080fd5b5061022161047d366004613022565b60d160209081526000938452604080852082529284528284209052825290205481565b3480156104ac57600080fd5b506101e7610a30565b3480156104c157600080fd5b5042610221565b3480156104d457600080fd5b5061032e6104e33660046133e1565b610aa4565b3480156104f457600080fd5b506097546001600160a01b031661032e565b34801561051257600080fd5b506101e7610521366004612fce565b610ace565b34801561053257600080fd5b506101e761054136600461306c565b610bc7565b34801561055257600080fd5b5061055b610c2e565b60405161022b919061345a565b34801561057457600080fd5b50610598610583366004612fce565b60cb6020526000908152604090205460ff1681565b604051901515815260200161022b565b3480156105b457600080fd5b506105986105c3366004612fce565b60d36020526000908152604090205460ff1681565b3480156105e457600080fd5b506101e76105f336600461306c565b610c90565b34801561060457600080fd5b506102d1610613366004612fea565b60cf6020908152600092835260408084209091529082529020805460019091015482565b34801561064357600080fd5b506101e7610652366004612fce565b610cf7565b34801561066357600080fd5b506101e76106723660046132e3565b610e33565b34801561068357600080fd5b506101e7610692366004612fce565b61108e565b60005b81518110156108d45760008282815181106106c557634e487b7160e01b600052603260045260246000fd5b602090810291909101015160c954604051635ec88c7960e01b81526001600160a01b03808416600483015292935060009283921690635ec88c799060240160606040518083038186803b15801561071b57600080fd5b505afa15801561072f573d6000803e3d6000fd5b505050506040513d601f19601f820116820180604052508101906107539190613411565b9250509150816000146107c65760405162461bcd60e51b815260206004820152603060248201527f6661696c656420746f20676574206163636f756e74206c69717569646974792060448201526f333937b69031b7b6b83a3937b63632b960811b60648201526084015b60405180910390fd5b6000811180156107ef57506001600160a01b038316600090815260d3602052604090205460ff16155b15610848576001600160a01b038316600081815260d36020526040808220805460ff1916600190811790915590519092917f26d21015c4930494b63bc148d61540d95bc6c68e8a80cbdd089c41ab839c281b91a36108be565b8015801561086e57506001600160a01b038316600090815260d3602052604090205460ff165b156108be576001600160a01b038316600081815260d36020526040808220805460ff19169055519091907f26d21015c4930494b63bc148d61540d95bc6c68e8a80cbdd089c41ab839c281b908390a35b50505080806108cc9061364c565b91505061069a565b5050565b6097546001600160a01b031633146109025760405162461bcd60e51b81526004016107bd90613528565b61091185858585856000611179565b5050505050565b61092181611740565b61093c8160405180602001604052806000815250600061176a565b50565b600054610100900460ff1680610958575060005460ff16155b6109745760405162461bcd60e51b81526004016107bd906134da565b600054610100900460ff1615801561099f576000805460ff1961ff0019909116610100171660011790555b6109a7611926565b60c980546001600160a01b0319166001600160a01b0384161790556109cb8361108e565b80156109dd576000805461ff00191690555b505050565b6109eb82611740565b6108d48282600161176a565b6097546001600160a01b03163314610a215760405162461bcd60e51b81526004016107bd90613528565b61091185858585856001611179565b6097546001600160a01b03163314610a5a5760405162461bcd60e51b81526004016107bd90613528565b6097546040516000916001600160a01b0316907f8be0079c531659141344cd1fd0a4f28419497f9722a3daafe3b4186f6b6457e0908390a3609780546001600160a01b0319169055565b60ca8181548110610ab457600080fd5b6000918252602090912001546001600160a01b0316905081565b6097546001600160a01b03163314610af85760405162461bcd60e51b81526004016107bd90613528565b6001600160a01b038116600090815260cb602052604090205460ff1615610b615760405162461bcd60e51b815260206004820152601b60248201527f72657761726420746f6b656e20686173206265656e206164646564000000000060448201526064016107bd565b6001600160a01b0316600081815260cb60205260408120805460ff1916600190811790915560ca805491820181559091527f42d72674974f694b5f5159593243114d38a5c39c89d6b62fee061ff523240ee10180546001600160a01b0319169091179055565b6108d460ca805480602002602001604051908101604052809291908181526020018280548015610c2057602002820191906000526020600020905b81546001600160a01b03168152600190910190602001808311610c02575b5050505050838360016119aa565b606060ca805480602002602001604051908101604052809291908181526020018280548015610c8657602002820191906000526020600020905b81546001600160a01b03168152600190910190602001808311610c68575b5050505050905090565b6108d460ca805480602002602001604051908101604052809291908181526020018280548015610ce957602002820191906000526020600020905b81546001600160a01b03168152600190910190602001808311610ccb575b505050505083836001611b04565b604080516001808252818301909252600091602080830190803683370190505090508181600081518110610d3b57634e487b7160e01b600052603260045260246000fd5b6001600160a01b03928316602091820292909201015260c9546040805163b0772d0b60e01b81529051600093929092169163b0772d0b916004808201928692909190829003018186803b158015610d9157600080fd5b505afa158015610da5573d6000803e3d6000fd5b505050506040513d6000823e601f3d908101601f19168201604052610dcd919081019061324a565b90506109dd828260ca805480602002602001604051908101604052809291908181526020018280548015610e2a57602002820191906000526020600020905b81546001600160a01b03168152600190910190602001808311610e0c575b50505050506001805b60005b8451811015610f73576000858281518110610e6157634e487b7160e01b600052603260045260246000fd5b602090810291909101015160c954604051638e8f294b60e01b81526001600160a01b03808416600483015292935060009290911690638e8f294b9060240160606040518083038186803b158015610eb757600080fd5b505afa158015610ecb573d6000803e3d6000fd5b505050506040513d601f19601f82011682018060405250810190610eef91906133ab565b5050905080610f385760405162461bcd60e51b81526020600482015260156024820152741b585c9ad95d081b5d5cdd081899481b1a5cdd1959605a1b60448201526064016107bd565b8415610f4b57610f4b86838a6000611b04565b8315610f5e57610f5e86838a60006119aa565b50508080610f6b9061364c565b915050610e36565b5060005b83518110156110865760005b8651811015611073576000858381518110610fae57634e487b7160e01b600052603260045260246000fd5b602002602001015190506000888381518110610fda57634e487b7160e01b600052603260045260246000fd5b60200260200101519050611037828260d26000866001600160a01b03166001600160a01b031681526020019081526020016000206000856001600160a01b03166001600160a01b0316815260200190815260200160002054611cd7565b6001600160a01b03928316600090815260d26020908152604080832094909516825292909252919020558061106b8161364c565b915050610f83565b508061107e8161364c565b915050610f77565b505050505050565b6097546001600160a01b031633146110b85760405162461bcd60e51b81526004016107bd90613528565b6001600160a01b03811661111d5760405162461bcd60e51b815260206004820152602660248201527f4f776e61626c653a206e6577206f776e657220697320746865207a65726f206160448201526564647265737360d01b60648201526084016107bd565b6097546040516001600160a01b038084169216907f8be0079c531659141344cd1fd0a4f28419497f9722a3daafe3b4186f6b6457e090600090a3609780546001600160a01b0319166001600160a01b0392909216919091179055565b84514290801580159061118c5750855181145b80156111985750845181145b80156111a45750835181145b6111e05760405162461bcd60e51b815260206004820152600d60248201526c1a5b9d985b1a59081a5b9c1d5d609a1b60448201526064016107bd565b6001600160a01b038816600090815260cb602052604090205460ff166112485760405162461bcd60e51b815260206004820152601a60248201527f72657761726420746f6b656e20776173206e6f7420616464656400000000000060448201526064016107bd565b60005b8181101561173557600088828151811061127557634e487b7160e01b600052603260045260246000fd5b6020026020010151905060008883815181106112a157634e487b7160e01b600052603260045260246000fd5b6020026020010151905060008884815181106112cd57634e487b7160e01b600052603260045260246000fd5b6020026020010151905060008885815181106112f957634e487b7160e01b600052603260045260246000fd5b6020026020010151905087156114da576113138d85611e84565b15611327576113228d85611eea565b6113a4565b6040518060400160405280670de0b6b3a764000081526020018881525060ce60008f6001600160a01b03166001600160a01b031681526020019081526020016000206000866001600160a01b03166001600160a01b0316815260200190815260200160002060008201518160000155602082015181600101559050505b6001600160a01b03808e16600090815260cc6020908152604080832093881683529281529082902082516060810184528154815260018201549281019290925260020154918101919091526113fa9083836120df565b60405180606001604052808481526020018381526020018281525060cc60008f6001600160a01b03166001600160a01b031681526020019081526020016000206000866001600160a01b03166001600160a01b0316815260200190815260200160002060008201518160000155602082015181600101556040820151816002015590505082846001600160a01b03168e6001600160a01b03167f77df4b7dde7e2c2ae957e232182d8b5dac40946e701afd577a281f679221d02a85856040516114cd929190918252602082015260400190565b60405180910390a461171e565b6114e48d85612275565b1561156f576000846001600160a01b031663aa5af0fd6040518163ffffffff1660e01b815260040160206040518083038186803b15801561152457600080fd5b505afa158015611538573d6000803e3d6000fd5b505050506040513d601f19601f8201168201806040525081019061155c91906133f9565b90506115698e86836122d7565b506115ec565b6040518060400160405280670de0b6b3a764000081526020018881525060cf60008f6001600160a01b03166001600160a01b031681526020019081526020016000206000866001600160a01b03166001600160a01b0316815260200190815260200160002060008201518160000155602082015181600101559050505b6001600160a01b03808e16600090815260cd6020908152604080832093881683529281529082902082516060810184528154815260018201549281019290925260020154918101919091526116429083836120df565b60405180606001604052808481526020018381526020018281525060cd60008f6001600160a01b03166001600160a01b031681526020019081526020016000206000866001600160a01b03166001600160a01b0316815260200190815260200160002060008201518160000155602082015181600101556040820151816002015590505082846001600160a01b03168e6001600160a01b03167ff5ee6756f151aeea2ed0e4ad055ee767f3497691bfb7022292048950c6f70d8a8585604051611715929190918252602082015260400190565b60405180910390a45b50505050808061172d9061364c565b91505061124b565b505050505050505050565b6097546001600160a01b0316331461093c5760405162461bcd60e51b81526004016107bd90613528565b600061179d7f360894a13ba1a3210667c828492db98dca3e2076cc3735a920a3ca505d382bbc546001600160a01b031690565b90506117a88461251b565b6000835111806117b55750815b156117c6576117c484846125c0565b505b7f4910fdfa16fed3260ed0e7147f7cc6da11a60208b5b9406d12a635614ffd9143805460ff1661091157805460ff191660011781556040516001600160a01b038316602482015261184590869060440160408051601f198184030181529190526020810180516001600160e01b0316631b2ce7f360e11b1790526125c0565b50805460ff191681557f360894a13ba1a3210667c828492db98dca3e2076cc3735a920a3ca505d382bbc546001600160a01b038381169116146118e25760405162461bcd60e51b815260206004820152602f60248201527f45524331393637557067726164653a207570677261646520627265616b73206660448201526e75727468657220757067726164657360881b60648201526084016107bd565b6118eb8561251b565b6040516001600160a01b038616907fbc7cd75a20ee27fd9adebab32041f755214dbc6bffa90cc0225b39da2e5c2d3b90600090a25050505050565b600054610100900460ff168061193f575060005460ff16155b61195b5760405162461bcd60e51b81526004016107bd906134da565b600054610100900460ff16158015611986576000805460ff1961ff0019909116610100171660011790555b61198e6126ab565b61199661271e565b801561093c576000805461ff001916905550565b60005b84518110156109115760cb60008683815181106119da57634e487b7160e01b600052603260045260246000fd5b6020908102919091018101516001600160a01b031682528101919091526040016000205460ff16611a485760405162461bcd60e51b81526020600482015260186024820152771c995dd85c99081d1bdad95b881b9bdd081cdd5c1c1bdc9d60421b60448201526064016107bd565b611a79858281518110611a6b57634e487b7160e01b600052603260045260246000fd5b602002602001015185611eea565b60005b8351811015611af157611adf868381518110611aa857634e487b7160e01b600052603260045260246000fd5b602002602001015186868481518110611ad157634e487b7160e01b600052603260045260246000fd5b6020026020010151866127d5565b80611ae98161364c565b915050611a7c565b5080611afc8161364c565b9150506119ad565b60005b84518110156109115760cb6000868381518110611b3457634e487b7160e01b600052603260045260246000fd5b6020908102919091018101516001600160a01b031682528101919091526040016000205460ff16611ba25760405162461bcd60e51b81526020600482015260186024820152771c995dd85c99081d1bdad95b881b9bdd081cdd5c1c1bdc9d60421b60448201526064016107bd565b6000846001600160a01b031663aa5af0fd6040518163ffffffff1660e01b815260040160206040518083038186803b158015611bdd57600080fd5b505afa158015611bf1573d6000803e3d6000fd5b505050506040513d601f19601f82011682018060405250810190611c1591906133f9565b9050611c49868381518110611c3a57634e487b7160e01b600052603260045260246000fd5b602002602001015186836122d7565b60005b8451811015611cc257611cb0878481518110611c7857634e487b7160e01b600052603260045260246000fd5b602002602001015187878481518110611ca157634e487b7160e01b600052603260045260246000fd5b602002602001015185886129f8565b80611cba8161364c565b915050611c4c565b50508080611ccf9061364c565b915050611b07565b6000806001600160a01b03851673eeeeeeeeeeeeeeeeeeeeeeeeeeeeeeeeeeeeeeee14611d7a576040516370a0823160e01b81523060048201526001600160a01b038616906370a082319060240160206040518083038186803b158015611d3d57600080fd5b505afa158015611d51573d6000803e3d6000fd5b505050506040513d601f19601f82011682018060405250810190611d7591906133f9565b611d7c565b475b9050600083118015611d8e5750808311155b8015611db357506001600160a01b038416600090815260d3602052604090205460ff16155b15611e78576001600160a01b03851673eeeeeeeeeeeeeeeeeeeeeeeeeeeeeeeeeeeeeeee1415611e19576040516001600160a01b0385169084156108fc029085906000818181858888f19350505050158015611e13573d6000803e3d6000fd5b50611e2d565b611e2d6001600160a01b0386168585612c3b565b82846001600160a01b0316866001600160a01b03167f4332d3aac8bbc1ec65700cf5d1235e2118fe56b06c41aaf3e9627fb19a39b1bf60405160405180910390a46000915050611e7d565b829150505b9392505050565b6001600160a01b03808316600090815260ce6020908152604080832093851683529290529081205415801590611ee157506001600160a01b03808416600090815260ce602090815260408083209386168352929052206001015415155b90505b92915050565b6001600160a01b03828116600081815260ce6020908152604080832094861680845294825280832093835260cc8252808320948352938152838220845160608101865281548152600182015492810192909252600201549381019390935290919042905082600101548111156109115781511580611f6b5750808260200151115b80611f7d575081604001518360010154115b15611f8e5760018301819055610911565b6000611fa284600101548460200151612c8d565b90506000611fb4838560400151612ca4565b90506000611fc28383613609565b8551909150600090611fd490836135ea565b90506000886001600160a01b03166318160ddd6040518163ffffffff1660e01b815260040160206040518083038186803b15801561201157600080fd5b505afa158015612025573d6000803e3d6000fd5b505050506040513d601f19601f8201168201806040525081019061204991906133f9565b9050600080821161205b576000612078565b8161206e84670de0b6b3a76400006135ea565b61207891906135ca565b90506000818a6000015461208c91906135b2565b60408051808201825291825260208083019a8b526001600160a01b039e8f16600090815260ce82528281209e909f168f529c909c529a909b2099518a555050935160019097019690965550505050505050565b42808210156121565760405162461bcd60e51b815260206004820152603c60248201527f74686520656e642074696d657374616d70206d7573742062652067726561746560448201527f72207468616e207468652063757272656e742074696d657374616d700000000060648201526084016107bd565b828210156121cc5760405162461bcd60e51b815260206004820152603a60248201527f74686520656e642074696d657374616d70206d7573742062652067726561746560448201527f72207468616e207468652073746172742074696d657374616d7000000000000060648201526084016107bd565b8360400151811080156121e25750836020015181115b80156121f15750602084015115155b1561226f578284602001511461226f5760405162461bcd60e51b815260206004820152603960248201527f63616e6e6f74206368616e6765207468652073746172742074696d657374616d60448201527f702061667465722074686520726577617264207374617274730000000000000060648201526084016107bd565b50505050565b6001600160a01b03808316600090815260cf6020908152604080832093851683529290529081205415801590611ee15750506001600160a01b03918216600090815260cf60209081526040808320939094168252919091522060010154151590565b6001600160a01b03838116600081815260cf6020908152604080832094871680845294825280832093835260cd82528083209483529381528382208451606081018652815481526001820154928101929092526002015493810193909352909190429050826001015481111561108657815115806123585750816020015181105b8061236a575081604001518360010154115b1561237b5760018301819055611086565b600061238f84600101548460200151612c8d565b905060006123a1838560400151612ca4565b905060006123af8383613609565b85519091506000906123c190836135ea565b90506000888a6001600160a01b03166347bd37186040518163ffffffff1660e01b815260040160206040518083038186803b1580156123ff57600080fd5b505afa158015612413573d6000803e3d6000fd5b505050506040513d601f19601f8201168201806040525081019061243791906133f9565b61244990670de0b6b3a76400006135ea565b61245391906135ca565b90506000808211612465576000612482565b8161247884670de0b6b3a76400006135ea565b61248291906135ca565b90506000818a6000015461249691906135b2565b905060405180604001604052808281526020018981525060cf60008f6001600160a01b03166001600160a01b0316815260200190815260200160002060008e6001600160a01b03166001600160a01b03168152602001908152602001600020600082015181600001556020820151816001015590505050505050505050505050505050565b803b61257f5760405162461bcd60e51b815260206004820152602d60248201527f455243313936373a206e657720696d706c656d656e746174696f6e206973206e60448201526c1bdd08184818dbdb9d1c9858dd609a1b60648201526084016107bd565b7f360894a13ba1a3210667c828492db98dca3e2076cc3735a920a3ca505d382bbc80546001600160a01b0319166001600160a01b0392909216919091179055565b6060823b61261f5760405162461bcd60e51b815260206004820152602660248201527f416464726573733a2064656c65676174652063616c6c20746f206e6f6e2d636f6044820152651b9d1c9858dd60d21b60648201526084016107bd565b600080846001600160a01b03168460405161263a919061343e565b600060405180830381855af49150503d8060008114612675576040519150601f19603f3d011682016040523d82523d6000602084013e61267a565b606091505b50915091506126a282826040518060600160405280602781526020016136b760279139612cb5565b95945050505050565b600054610100900460ff16806126c4575060005460ff16155b6126e05760405162461bcd60e51b81526004016107bd906134da565b600054610100900460ff16158015611996576000805460ff1961ff001990911661010017166001179055801561093c576000805461ff001916905550565b600054610100900460ff1680612737575060005460ff16155b6127535760405162461bcd60e51b81526004016107bd906134da565b600054610100900460ff1615801561277e576000805460ff1961ff0019909116610100171660011790555b609780546001600160a01b0319163390811790915560405181906000907f8be0079c531659141344cd1fd0a4f28419497f9722a3daafe3b4186f6b6457e0908290a350801561093c576000805461ff001916905550565b6001600160a01b03848116600081815260ce602090815260408083208886168085529083528184208251808401845281548082526001909201548186015295855260d08452828520918552908352818420958816845294909152902080549083905590919080156129ef57600061284c8284613609565b6040516370a0823160e01b81526001600160a01b0388811660048301529192506000918916906370a082319060240160206040518083038186803b15801561289357600080fd5b505afa1580156128a7573d6000803e3d6000fd5b505050506040513d601f19601f820116820180604052508101906128cb91906133f9565b90506000670de0b6b3a76400006128e284846135ea565b6128ec91906135ca565b6001600160a01b03808c16600090815260d260209081526040808320938d16835292905290812054919250906129239083906135b2565b90508715612961576129368b8a83611cd7565b6001600160a01b03808d16600090815260d260209081526040808320938e168352929052205561298a565b6001600160a01b03808c16600090815260d260209081526040808320938d168352929052208190555b886001600160a01b03168a6001600160a01b03168c6001600160a01b03167fd86006b66121ffb8dbb982b137b8f7e9d7db643a9b18044e879f6214b709d31e858a6040516129e2929190918252602082015260400190565b60405180910390a4505050505b50505050505050565b6001600160a01b03858116600081815260cf602090815260408083208986168085529083528184208251808401845281548082526001909201548186015295855260d1845282852091855290835281842095891684529490915290208054908390559091908015612c31576000612a6f8284613609565b6040516395dd919360e01b81526001600160a01b0389811660048301529192506000918891908b16906395dd91939060240160206040518083038186803b158015612ab957600080fd5b505afa158015612acd573d6000803e3d6000fd5b505050506040513d601f19601f82011682018060405250810190612af191906133f9565b612b0390670de0b6b3a76400006135ea565b612b0d91906135ca565b90506000670de0b6b3a7640000612b2484846135ea565b612b2e91906135ca565b6001600160a01b03808d16600090815260d260209081526040808320938e1683529290529081205491925090612b659083906135b2565b90508715612ba357612b788c8b83611cd7565b6001600160a01b03808e16600090815260d260209081526040808320938f1683529290522055612bcc565b6001600160a01b03808d16600090815260d260209081526040808320938e168352929052208190555b896001600160a01b03168b6001600160a01b03168d6001600160a01b03167f6b024d318c21b2bab46c7033be8aea76966d078464fbfe800d89c0f74539bcc9858a604051612c24929190918252602082015260400190565b60405180910390a4505050505b5050505050505050565b604080516001600160a01b038416602482015260448082018490528251808303909101815260649091019091526020810180516001600160e01b031663a9059cbb60e01b1790526109dd908490612cee565b600081831115612c9e575081611ee4565b50919050565b600081831015612c9e575081611ee4565b60608315612cc4575081611e7d565b825115612cd45782518084602001fd5b8160405162461bcd60e51b81526004016107bd91906134a7565b6000612d43826040518060400160405280602081526020017f5361666545524332303a206c6f772d6c6576656c2063616c6c206661696c6564815250856001600160a01b0316612dc09092919063ffffffff16565b8051909150156109dd5780806020019051810190612d61919061338f565b6109dd5760405162461bcd60e51b815260206004820152602a60248201527f5361666545524332303a204552433230206f7065726174696f6e20646964206e6044820152691bdd081cdd58d8d9595960b21b60648201526084016107bd565b6060612dcf8484600085612dd7565b949350505050565b606082471015612e385760405162461bcd60e51b815260206004820152602660248201527f416464726573733a20696e73756666696369656e742062616c616e636520666f6044820152651c8818d85b1b60d21b60648201526084016107bd565b843b612e865760405162461bcd60e51b815260206004820152601d60248201527f416464726573733a2063616c6c20746f206e6f6e2d636f6e747261637400000060448201526064016107bd565b600080866001600160a01b03168587604051612ea2919061343e565b60006040518083038185875af1925050503d8060008114612edf576040519150601f19603f3d011682016040523d82523d6000602084013e612ee4565b606091505b5091509150612ef4828286612cb5565b979650505050505050565b600082601f830112612f0f578081fd5b81356020612f24612f1f8361358e565b61355d565b8281528181019085830183850287018401881015612f40578586fd5b855b85811015612f67578135612f5581613693565b84529284019290840190600101612f42565b5090979650505050505050565b600082601f830112612f84578081fd5b81356020612f94612f1f8361358e565b8281528181019085830183850287018401881015612fb0578586fd5b855b85811015612f6757813584529284019290840190600101612fb2565b600060208284031215612fdf578081fd5b8135611e7d81613693565b60008060408385031215612ffc578081fd5b823561300781613693565b9150602083013561301781613693565b809150509250929050565b600080600060608486031215613036578081fd5b833561304181613693565b9250602084013561305181613693565b9150604084013561306181613693565b809150509250925092565b6000806040838503121561307e578182fd5b823561308981613693565b9150602083013567ffffffffffffffff8111156130a4578182fd5b6130b085828601612eff565b9150509250929050565b600080600080600060a086880312156130d1578081fd5b85356130dc81613693565b9450602086013567ffffffffffffffff808211156130f8578283fd5b61310489838a01612eff565b95506040880135915080821115613119578283fd5b61312589838a01612f74565b9450606088013591508082111561313a578283fd5b61314689838a01612f74565b9350608088013591508082111561315b578283fd5b5061316888828901612f74565b9150509295509295909350565b60008060408385031215613187578182fd5b823561319281613693565b915060208381013567ffffffffffffffff808211156131af578384fd5b818601915086601f8301126131c2578384fd5b8135818111156131d4576131d461367d565b6131e6601f8201601f1916850161355d565b915080825287848285010111156131fb578485fd5b8084840185840137810190920192909252919491935090915050565b600060208284031215613228578081fd5b813567ffffffffffffffff81111561323e578182fd5b612dcf84828501612eff565b6000602080838503121561325c578182fd5b825167ffffffffffffffff811115613272578283fd5b8301601f81018513613282578283fd5b8051613290612f1f8261358e565b81815283810190838501858402850186018910156132ac578687fd5b8694505b838510156132d75780516132c381613693565b8352600194909401939185019185016132b0565b50979650505050505050565b600080600080600060a086880312156132fa578283fd5b853567ffffffffffffffff80821115613311578485fd5b61331d89838a01612eff565b96506020880135915080821115613332578485fd5b61333e89838a01612eff565b95506040880135915080821115613353578485fd5b5061336088828901612eff565b9350506060860135613371816136a8565b91506080860135613381816136a8565b809150509295509295909350565b6000602082840312156133a0578081fd5b8151611e7d816136a8565b6000806000606084860312156133bf578081fd5b83516133ca816136a8565b602085015160409095015190969495509392505050565b6000602082840312156133f2578081fd5b5035919050565b60006020828403121561340a578081fd5b5051919050565b600080600060608486031215613425578081fd5b8351925060208401519150604084015190509250925092565b60008251613450818460208701613620565b9190910192915050565b6020808252825182820181905260009190848201906040850190845b8181101561349b5783516001600160a01b031683529284019291840191600101613476565b50909695505050505050565b60006020825282518060208401526134c6816040850160208701613620565b601f01601f19169190910160400192915050565b6020808252602e908201527f496e697469616c697a61626c653a20636f6e747261637420697320616c72656160408201526d191e481a5b9a5d1a585b1a5e995960921b606082015260800190565b6020808252818101527f4f776e61626c653a2063616c6c6572206973206e6f7420746865206f776e6572604082015260600190565b604051601f8201601f1916810167ffffffffffffffff811182821017156135865761358661367d565b604052919050565b600067ffffffffffffffff8211156135a8576135a861367d565b5060209081020190565b600082198211156135c5576135c5613667565b500190565b6000826135e557634e487b7160e01b81526012600452602481fd5b500490565b600081600019048311821515161561360457613604613667565b500290565b60008282101561361b5761361b613667565b500390565b60005b8381101561363b578181015183820152602001613623565b8381111561226f5750506000910152565b600060001982141561366057613660613667565b5060010190565b634e487b7160e01b600052601160045260246000fd5b634e487b7160e01b600052604160045260246000fd5b6001600160a01b038116811461093c57600080fd5b801515811461093c57600080fdfe416464726573733a206c6f772d6c6576656c2064656c65676174652063616c6c206661696c6564a26469706673582212209b79eb32f1fcbf50c5707a5224b1417f84ad722b4cb8bd1f8a551c487023508c64736f6c63430008020033",
  "devdoc": {
    "kind": "dev",
    "methods": {
      "_addRewardToken(address)": {
        "params": {
          "rewardToken": "The new reward token"
        }
      },
      "_setRewardBorrowSpeeds(address,address[],uint256[],uint256[],uint256[])": {
        "params": {
          "cTokens": "The addresses of cTokens",
          "ends": "The list of end timestamps",
          "rewardToken": "The reward token",
          "speeds": "The list of reward speeds",
          "starts": "The list of start timestamps"
        }
      },
      "_setRewardSupplySpeeds(address,address[],uint256[],uint256[],uint256[])": {
        "params": {
          "cTokens": "The addresses of cTokens",
          "ends": "The list of end timestamps",
          "rewardToken": "The reward token",
          "speeds": "The list of reward speeds",
          "starts": "The list of start timestamps"
        }
      },
      "claimAllRewards(address)": {
        "params": {
          "holder": "The address to claim rewards for"
        }
      },
      "claimRewards(address[],address[],address[],bool,bool)": {
        "params": {
          "borrowers": "Whether or not to claim rewards earned by borrowing",
          "cTokens": "The list of markets to claim rewards in",
          "holders": "The addresses to claim rewards for",
          "rewards": "The list of reward tokens to claim",
          "suppliers": "Whether or not to claim rewards earned by supplying"
        }
      },
      "getBlockTimestamp()": {
        "returns": {
          "_0": "The current block timestamp"
        }
      },
      "getRewardTokenList()": {
        "returns": {
          "_0": "The list of reward token addresses"
        }
      },
      "owner()": {
        "details": "Returns the address of the current owner."
      },
      "renounceOwnership()": {
        "details": "Leaves the contract without owner. It will not be possible to call `onlyOwner` functions anymore. Can only be called by the current owner. NOTE: Renouncing ownership will leave the contract without an owner, thereby removing any functionality that is only available to the owner."
      },
      "transferOwnership(address)": {
        "details": "Transfers ownership of the contract to a new account (`newOwner`). Can only be called by the current owner."
      },
      "updateBorrowIndex(address,address[])": {
        "params": {
          "borrowers": "The related borrowers",
          "cToken": "The market whose borrow index to update"
        }
      },
      "updateDebtors(address[])": {
        "params": {
          "accounts": "The list of accounts to be updated"
        }
      },
      "updateSupplyIndex(address,address[])": {
        "params": {
          "cToken": "The market whose supply index to update",
          "suppliers": "The related suppliers"
        }
      }
    },
    "version": 1
  },
  "userdoc": {
    "events": {
      "TransferReward(address,address,uint256)": {
        "notice": "Emitted when rewards are transferred to a user"
      },
      "UpdateBorrowRewardSpeed(address,address,uint256,uint256,uint256)": {
        "notice": "Emitted when a market's reward borrow speed is updated"
      },
      "UpdateBorrowerRewardIndex(address,address,address,uint256,uint256)": {
        "notice": "Emitted when a borrower's reward borrower index is updated"
      },
      "UpdateDebtor(address,bool)": {
        "notice": "Emitted when a debtor is updated"
      },
      "UpdateSupplierRewardIndex(address,address,address,uint256,uint256)": {
        "notice": "Emitted when a supplier's reward supply index is updated"
      },
      "UpdateSupplyRewardSpeed(address,address,uint256,uint256,uint256)": {
        "notice": "Emitted when a market's reward supply speed is updated"
      }
    },
    "kind": "user",
    "methods": {
      "_addRewardToken(address)": {
        "notice": "Add new reward token. Revert if the reward token has been added"
      },
      "_setRewardBorrowSpeeds(address,address[],uint256[],uint256[],uint256[])": {
        "notice": "Set cTokens reward borrow speeds"
      },
      "_setRewardSupplySpeeds(address,address[],uint256[],uint256[],uint256[])": {
        "notice": "Set cTokens reward supply speeds"
      },
      "claimAllRewards(address)": {
        "notice": "Claim all the rewards accrued by holder in all markets"
      },
      "claimRewards(address[],address[],address[],bool,bool)": {
        "notice": "Claim the rewards accrued by the holders"
      },
      "comptroller()": {
        "notice": "The comptroller that wants to distribute rewards."
      },
      "debtors(address)": {
        "notice": "The debtors who can't claim rewards until their bad debts are repaid."
      },
      "getBlockTimestamp()": {
        "notice": "Return the current block timestamp."
      },
      "getRewardTokenList()": {
        "notice": "Return the reward token list."
      },
      "initialize(address,address)": {
        "notice": "Initialize the contract with admin and comptroller"
      },
      "rewardAccrued(address,address)": {
        "notice": "The reward accrued but not yet transferred to each user"
      },
      "rewardBorrowSpeeds(address,address)": {
        "notice": "The reward speeds of each reward token for every borrow market"
      },
      "rewardBorrowState(address,address)": {
        "notice": "The market reward borrow state for each market"
      },
      "rewardBorrowerIndex(address,address,address)": {
        "notice": "The borrow index for each market for each borrower as of the last time they accrued rewards"
      },
      "rewardSupplierIndex(address,address,address)": {
        "notice": "The supply index for each market for each supplier as of the last time they accrued rewards"
      },
      "rewardSupplySpeeds(address,address)": {
        "notice": "The reward speeds of each reward token for every supply market"
      },
      "rewardSupplyState(address,address)": {
        "notice": "The market reward supply state for each market"
      },
      "rewardTokens(uint256)": {
        "notice": "The support reward tokens."
      },
      "rewardTokensMap(address)": {
        "notice": "The support reward tokens."
      },
      "updateBorrowIndex(address,address[])": {
        "notice": "Accrue rewards to the market by updating the borrow index and calculate rewards accrued by borrowers"
      },
      "updateDebtors(address[])": {
        "notice": "Update accounts to be debtors or not. Debtors couldn't claim rewards until their bad debts are repaid."
      },
      "updateSupplyIndex(address,address[])": {
        "notice": "Accrue rewards to the market by updating the supply index and calculate rewards accrued by suppliers"
      }
    },
    "version": 1
  },
  "storageLayout": {
    "storage": [
      {
        "astId": 580,
        "contract": "contracts/LiquidityMining.sol:LiquidityMining",
        "label": "_initialized",
        "offset": 0,
        "slot": "0",
        "type": "t_bool"
      },
      {
        "astId": 583,
        "contract": "contracts/LiquidityMining.sol:LiquidityMining",
        "label": "_initializing",
        "offset": 1,
        "slot": "0",
        "type": "t_bool"
      },
      {
        "astId": 563,
        "contract": "contracts/LiquidityMining.sol:LiquidityMining",
        "label": "__gap",
        "offset": 0,
        "slot": "1",
        "type": "t_array(t_uint256)50_storage"
      },
      {
        "astId": 693,
        "contract": "contracts/LiquidityMining.sol:LiquidityMining",
        "label": "__gap",
        "offset": 0,
        "slot": "51",
        "type": "t_array(t_uint256)50_storage"
      },
      {
        "astId": 982,
        "contract": "contracts/LiquidityMining.sol:LiquidityMining",
        "label": "__gap",
        "offset": 0,
        "slot": "101",
        "type": "t_array(t_uint256)50_storage"
      },
      {
        "astId": 10,
        "contract": "contracts/LiquidityMining.sol:LiquidityMining",
        "label": "_owner",
        "offset": 0,
        "slot": "151",
        "type": "t_address"
      },
      {
        "astId": 129,
        "contract": "contracts/LiquidityMining.sol:LiquidityMining",
        "label": "__gap",
        "offset": 0,
        "slot": "152",
        "type": "t_array(t_uint256)49_storage"
      },
      {
        "astId": 4793,
        "contract": "contracts/LiquidityMining.sol:LiquidityMining",
        "label": "comptroller",
        "offset": 0,
        "slot": "201",
        "type": "t_address"
      },
      {
        "astId": 4797,
        "contract": "contracts/LiquidityMining.sol:LiquidityMining",
        "label": "rewardTokens",
        "offset": 0,
        "slot": "202",
        "type": "t_array(t_address)dyn_storage"
      },
      {
        "astId": 4802,
        "contract": "contracts/LiquidityMining.sol:LiquidityMining",
        "label": "rewardTokensMap",
        "offset": 0,
        "slot": "203",
        "type": "t_mapping(t_address,t_bool)"
      },
      {
        "astId": 4817,
        "contract": "contracts/LiquidityMining.sol:LiquidityMining",
        "label": "rewardSupplySpeeds",
        "offset": 0,
        "slot": "204",
        "type": "t_mapping(t_address,t_mapping(t_address,t_struct(RewardSpeed)4809_storage))"
      },
      {
        "astId": 4825,
        "contract": "contracts/LiquidityMining.sol:LiquidityMining",
        "label": "rewardBorrowSpeeds",
        "offset": 0,
        "slot": "205",
        "type": "t_mapping(t_address,t_mapping(t_address,t_struct(RewardSpeed)4809_storage))"
      },
      {
        "astId": 4838,
        "contract": "contracts/LiquidityMining.sol:LiquidityMining",
        "label": "rewardSupplyState",
        "offset": 0,
        "slot": "206",
        "type": "t_mapping(t_address,t_mapping(t_address,t_struct(RewardState)4830_storage))"
      },
      {
        "astId": 4846,
        "contract": "contracts/LiquidityMining.sol:LiquidityMining",
        "label": "rewardBorrowState",
        "offset": 0,
        "slot": "207",
        "type": "t_mapping(t_address,t_mapping(t_address,t_struct(RewardState)4830_storage))"
      },
      {
        "astId": 4855,
        "contract": "contracts/LiquidityMining.sol:LiquidityMining",
        "label": "rewardSupplierIndex",
        "offset": 0,
        "slot": "208",
        "type": "t_mapping(t_address,t_mapping(t_address,t_mapping(t_address,t_uint256)))"
      },
      {
        "astId": 4864,
        "contract": "contracts/LiquidityMining.sol:LiquidityMining",
        "label": "rewardBorrowerIndex",
        "offset": 0,
        "slot": "209",
        "type": "t_mapping(t_address,t_mapping(t_address,t_mapping(t_address,t_uint256)))"
      },
      {
        "astId": 4871,
        "contract": "contracts/LiquidityMining.sol:LiquidityMining",
        "label": "rewardAccrued",
        "offset": 0,
        "slot": "210",
        "type": "t_mapping(t_address,t_mapping(t_address,t_uint256))"
      },
      {
        "astId": 4876,
        "contract": "contracts/LiquidityMining.sol:LiquidityMining",
        "label": "debtors",
        "offset": 0,
        "slot": "211",
        "type": "t_mapping(t_address,t_bool)"
      }
    ],
    "types": {
      "t_address": {
        "encoding": "inplace",
        "label": "address",
        "numberOfBytes": "20"
      },
      "t_array(t_address)dyn_storage": {
        "base": "t_address",
        "encoding": "dynamic_array",
        "label": "address[]",
        "numberOfBytes": "32"
      },
      "t_array(t_uint256)49_storage": {
        "base": "t_uint256",
        "encoding": "inplace",
        "label": "uint256[49]",
        "numberOfBytes": "1568"
      },
      "t_array(t_uint256)50_storage": {
        "base": "t_uint256",
        "encoding": "inplace",
        "label": "uint256[50]",
        "numberOfBytes": "1600"
      },
      "t_bool": {
        "encoding": "inplace",
        "label": "bool",
        "numberOfBytes": "1"
      },
      "t_mapping(t_address,t_bool)": {
        "encoding": "mapping",
        "key": "t_address",
        "label": "mapping(address => bool)",
        "numberOfBytes": "32",
        "value": "t_bool"
      },
      "t_mapping(t_address,t_mapping(t_address,t_mapping(t_address,t_uint256)))": {
        "encoding": "mapping",
        "key": "t_address",
        "label": "mapping(address => mapping(address => mapping(address => uint256)))",
        "numberOfBytes": "32",
        "value": "t_mapping(t_address,t_mapping(t_address,t_uint256))"
      },
      "t_mapping(t_address,t_mapping(t_address,t_struct(RewardSpeed)4809_storage))": {
        "encoding": "mapping",
        "key": "t_address",
        "label": "mapping(address => mapping(address => struct LiquidityMiningStorage.RewardSpeed))",
        "numberOfBytes": "32",
        "value": "t_mapping(t_address,t_struct(RewardSpeed)4809_storage)"
      },
      "t_mapping(t_address,t_mapping(t_address,t_struct(RewardState)4830_storage))": {
        "encoding": "mapping",
        "key": "t_address",
        "label": "mapping(address => mapping(address => struct LiquidityMiningStorage.RewardState))",
        "numberOfBytes": "32",
        "value": "t_mapping(t_address,t_struct(RewardState)4830_storage)"
      },
      "t_mapping(t_address,t_mapping(t_address,t_uint256))": {
        "encoding": "mapping",
        "key": "t_address",
        "label": "mapping(address => mapping(address => uint256))",
        "numberOfBytes": "32",
        "value": "t_mapping(t_address,t_uint256)"
      },
      "t_mapping(t_address,t_struct(RewardSpeed)4809_storage)": {
        "encoding": "mapping",
        "key": "t_address",
        "label": "mapping(address => struct LiquidityMiningStorage.RewardSpeed)",
        "numberOfBytes": "32",
        "value": "t_struct(RewardSpeed)4809_storage"
      },
      "t_mapping(t_address,t_struct(RewardState)4830_storage)": {
        "encoding": "mapping",
        "key": "t_address",
        "label": "mapping(address => struct LiquidityMiningStorage.RewardState)",
        "numberOfBytes": "32",
        "value": "t_struct(RewardState)4830_storage"
      },
      "t_mapping(t_address,t_uint256)": {
        "encoding": "mapping",
        "key": "t_address",
        "label": "mapping(address => uint256)",
        "numberOfBytes": "32",
        "value": "t_uint256"
      },
      "t_struct(RewardSpeed)4809_storage": {
        "encoding": "inplace",
        "label": "struct LiquidityMiningStorage.RewardSpeed",
        "members": [
          {
            "astId": 4804,
            "contract": "contracts/LiquidityMining.sol:LiquidityMining",
            "label": "speed",
            "offset": 0,
            "slot": "0",
            "type": "t_uint256"
          },
          {
            "astId": 4806,
            "contract": "contracts/LiquidityMining.sol:LiquidityMining",
            "label": "start",
            "offset": 0,
            "slot": "1",
            "type": "t_uint256"
          },
          {
            "astId": 4808,
            "contract": "contracts/LiquidityMining.sol:LiquidityMining",
            "label": "end",
            "offset": 0,
            "slot": "2",
            "type": "t_uint256"
          }
        ],
        "numberOfBytes": "96"
      },
      "t_struct(RewardState)4830_storage": {
        "encoding": "inplace",
        "label": "struct LiquidityMiningStorage.RewardState",
        "members": [
          {
            "astId": 4827,
            "contract": "contracts/LiquidityMining.sol:LiquidityMining",
            "label": "index",
            "offset": 0,
            "slot": "0",
            "type": "t_uint256"
          },
          {
            "astId": 4829,
            "contract": "contracts/LiquidityMining.sol:LiquidityMining",
            "label": "timestamp",
            "offset": 0,
            "slot": "1",
            "type": "t_uint256"
          }
        ],
        "numberOfBytes": "64"
      },
      "t_uint256": {
        "encoding": "inplace",
        "label": "uint256",
        "numberOfBytes": "32"
      }
    }
  }
}